{
  "_format": "hh-sol-artifact-1",
  "contractName": "MultiSig",
  "sourceName": "contracts/MultiSig.sol",
  "abi": [
    {
      "inputs": [
        {
          "internalType": "address[]",
          "name": "_owners",
          "type": "address[]"
        }
      ],
      "stateMutability": "nonpayable",
      "type": "constructor"
    },
    {
      "inputs": [],
      "name": "DoughAddr",
      "outputs": [
        {
          "internalType": "address",
          "name": "",
          "type": "address"
        }
      ],
      "stateMutability": "view",
      "type": "function"
    },
    {
      "inputs": [],
      "name": "FlourAddr",
      "outputs": [
        {
          "internalType": "address",
          "name": "",
          "type": "address"
        }
      ],
      "stateMutability": "view",
      "type": "function"
    },
    {
      "inputs": [],
      "name": "SaltAddr",
      "outputs": [
        {
          "internalType": "address",
          "name": "",
          "type": "address"
        }
      ],
      "stateMutability": "view",
      "type": "function"
    },
    {
      "inputs": [],
      "name": "WaterAddr",
      "outputs": [
        {
          "internalType": "address",
          "name": "",
          "type": "address"
        }
      ],
      "stateMutability": "view",
      "type": "function"
    },
    {
      "inputs": [],
      "name": "YeastAddr",
      "outputs": [
        {
          "internalType": "address",
          "name": "",
          "type": "address"
        }
      ],
      "stateMutability": "view",
      "type": "function"
    },
    {
      "inputs": [
        {
          "internalType": "uint256",
          "name": "transactionId",
          "type": "uint256"
        }
      ],
      "name": "confirmTransaction",
      "outputs": [],
      "stateMutability": "nonpayable",
      "type": "function"
    },
    {
      "inputs": [
        {
          "internalType": "uint256",
          "name": "",
          "type": "uint256"
        },
        {
          "internalType": "address",
          "name": "",
          "type": "address"
        }
      ],
      "name": "confirmations",
      "outputs": [
        {
          "internalType": "bool",
          "name": "",
          "type": "bool"
        }
      ],
      "stateMutability": "view",
      "type": "function"
    },
    {
      "inputs": [],
      "name": "dough",
      "outputs": [
        {
          "internalType": "contract Dough",
          "name": "",
          "type": "address"
        }
      ],
      "stateMutability": "view",
      "type": "function"
    },
    {
      "inputs": [
        {
          "internalType": "uint256",
          "name": "_txId",
          "type": "uint256"
        }
      ],
      "name": "executeTransaction",
      "outputs": [],
      "stateMutability": "nonpayable",
      "type": "function"
    },
    {
      "inputs": [],
      "name": "flour",
      "outputs": [
        {
          "internalType": "contract Flour",
          "name": "",
          "type": "address"
        }
      ],
      "stateMutability": "view",
      "type": "function"
    },
    {
      "inputs": [
        {
          "internalType": "uint256",
          "name": "transactionId",
          "type": "uint256"
        }
      ],
      "name": "getConfirmationsCount",
      "outputs": [
        {
          "internalType": "uint256",
          "name": "",
          "type": "uint256"
        }
      ],
      "stateMutability": "view",
      "type": "function"
    },
    {
      "inputs": [
        {
          "internalType": "uint256",
          "name": "_txId",
          "type": "uint256"
        }
      ],
      "name": "isConfirmed",
      "outputs": [
        {
          "internalType": "bool",
          "name": "",
          "type": "bool"
        }
      ],
      "stateMutability": "view",
      "type": "function"
    },
    {
      "inputs": [],
      "name": "makeDough",
      "outputs": [],
      "stateMutability": "payable",
      "type": "function"
    },
    {
      "inputs": [
        {
          "internalType": "uint256",
          "name": "",
          "type": "uint256"
        }
      ],
      "name": "owners",
      "outputs": [
        {
          "internalType": "address",
          "name": "",
          "type": "address"
        }
      ],
      "stateMutability": "view",
      "type": "function"
    },
    {
      "inputs": [],
      "name": "required",
      "outputs": [
        {
          "internalType": "uint256",
          "name": "",
          "type": "uint256"
        }
      ],
      "stateMutability": "view",
      "type": "function"
    },
    {
      "inputs": [],
      "name": "salt",
      "outputs": [
        {
          "internalType": "contract Salt",
          "name": "",
          "type": "address"
        }
      ],
      "stateMutability": "view",
      "type": "function"
    },
    {
      "inputs": [],
      "name": "selfDestruct",
      "outputs": [],
      "stateMutability": "nonpayable",
      "type": "function"
    },
    {
      "inputs": [
        {
          "internalType": "address payable",
          "name": "dest",
          "type": "address"
        },
        {
          "internalType": "uint256",
          "name": "value",
          "type": "uint256"
        },
        {
          "internalType": "bytes",
          "name": "data",
          "type": "bytes"
        }
      ],
      "name": "submitTransaction",
      "outputs": [],
      "stateMutability": "nonpayable",
      "type": "function"
    },
    {
      "inputs": [],
      "name": "transactionCount",
      "outputs": [
        {
          "internalType": "uint256",
          "name": "",
          "type": "uint256"
        }
      ],
      "stateMutability": "view",
      "type": "function"
    },
    {
      "inputs": [
        {
          "internalType": "uint256",
          "name": "",
          "type": "uint256"
        }
      ],
      "name": "transactions",
      "outputs": [
        {
          "internalType": "address payable",
          "name": "destination",
          "type": "address"
        },
        {
          "internalType": "uint256",
          "name": "value",
          "type": "uint256"
        },
        {
          "internalType": "bool",
          "name": "executed",
          "type": "bool"
        },
        {
          "internalType": "bytes",
          "name": "data",
          "type": "bytes"
        }
      ],
      "stateMutability": "view",
      "type": "function"
    },
    {
      "inputs": [],
      "name": "water",
      "outputs": [
        {
          "internalType": "contract Water",
          "name": "",
          "type": "address"
        }
      ],
      "stateMutability": "view",
      "type": "function"
    },
    {
      "inputs": [],
      "name": "yeast",
      "outputs": [
        {
          "internalType": "contract Yeast",
          "name": "",
          "type": "address"
        }
      ],
      "stateMutability": "view",
      "type": "function"
    },
    {
      "stateMutability": "payable",
      "type": "receive"
    }
  ],
  "bytecode": "0x6080604052604051620000129062000441565b604051809103906000f0801580156200002f573d6000803e3d6000fd5b50600860006101000a81548173ffffffffffffffffffffffffffffffffffffffff021916908373ffffffffffffffffffffffffffffffffffffffff1602179055506040516200007e906200044f565b604051809103906000f0801580156200009b573d6000803e3d6000fd5b50600960006101000a81548173ffffffffffffffffffffffffffffffffffffffff021916908373ffffffffffffffffffffffffffffffffffffffff160217905550604051620000ea906200045d565b604051809103906000f08015801562000107573d6000803e3d6000fd5b50600a60006101000a81548173ffffffffffffffffffffffffffffffffffffffff021916908373ffffffffffffffffffffffffffffffffffffffff16021790555060405162000156906200046b565b604051809103906000f08015801562000173573d6000803e3d6000fd5b50600b60006101000a81548173ffffffffffffffffffffffffffffffffffffffff021916908373ffffffffffffffffffffffffffffffffffffffff160217905550604051620001c29062000479565b604051809103906000f080158015620001df573d6000803e3d6000fd5b50600c60006101000a81548173ffffffffffffffffffffffffffffffffffffffff021916908373ffffffffffffffffffffffffffffffffffffffff1602179055503480156200022d57600080fd5b506040516200a10d3803806200a10d8339818101604052810190620002539190620005ee565b60008151116200026257600080fd5b80600090805190602001906200027a92919062000487565b50600481516200028b919062000696565b60028190555073c912cd9a34326ad82996f38a33c9343a22206de7600760006101000a81548173ffffffffffffffffffffffffffffffffffffffff021916908373ffffffffffffffffffffffffffffffffffffffff16021790555073b6fe12431f84004ae370524b375b5ae035849e93600360006101000a81548173ffffffffffffffffffffffffffffffffffffffff021916908373ffffffffffffffffffffffffffffffffffffffff160217905550732ac5803dc24360896343e445780f0c645c09c9fa600560006101000a81548173ffffffffffffffffffffffffffffffffffffffff021916908373ffffffffffffffffffffffffffffffffffffffff16021790555073c7a86edc8127c68289873f60a29fbffddef7417a600660006101000a81548173ffffffffffffffffffffffffffffffffffffffff021916908373ffffffffffffffffffffffffffffffffffffffff16021790555073d879e415b7c33c09c4539c40007684e95bd7964c600460006101000a81548173ffffffffffffffffffffffffffffffffffffffff021916908373ffffffffffffffffffffffffffffffffffffffff1602179055505062000784565b61179a8062002b0b83390190565b61179a80620042a583390190565b61179a8062005a3f83390190565b61179a80620071d983390190565b61179a806200897383390190565b82805482825590600052602060002090810192821562000503579160200282015b82811115620005025782518260006101000a81548173ffffffffffffffffffffffffffffffffffffffff021916908373ffffffffffffffffffffffffffffffffffffffff16021790555091602001919060010190620004a8565b5b50905062000512919062000516565b5090565b5b808211156200053157600081600090555060010162000517565b5090565b60006200054c620005468462000667565b62000633565b905080838252602082019050828560208602820111156200056c57600080fd5b60005b85811015620005a05781620005858882620005aa565b8452602084019350602083019250506001810190506200056f565b5050509392505050565b600081519050620005bb816200076a565b92915050565b600082601f830112620005d357600080fd5b8151620005e584826020860162000535565b91505092915050565b6000602082840312156200060157600080fd5b600082015167ffffffffffffffff8111156200061c57600080fd5b6200062a84828501620005c1565b91505092915050565b6000604051905081810181811067ffffffffffffffff821117156200065d576200065c6200073b565b5b8060405250919050565b600067ffffffffffffffff8211156200068557620006846200073b565b5b602082029050602081019050919050565b6000620006a38262000702565b9150620006b08362000702565b925082620006c357620006c26200070c565b5b828204905092915050565b6000620006db82620006e2565b9050919050565b600073ffffffffffffffffffffffffffffffffffffffff82169050919050565b6000819050919050565b7f4e487b7100000000000000000000000000000000000000000000000000000000600052601260045260246000fd5b7f4e487b7100000000000000000000000000000000000000000000000000000000600052604160045260246000fd5b6200077581620006ce565b81146200078157600080fd5b50565b61237780620007946000396000f3fe6080604052600436106101395760003560e01c8063bbca6210116100ab578063c64274741161006f578063c64274741461043c578063dc8452cd14610465578063ece15cba14610490578063ee22610b146104bb578063f05d75b4146104e4578063ffce2210146104ee57610140565b8063bbca621014610355578063bce800e514610380578063bfa0b133146103bd578063bff7e49f146103e8578063c01a8c841461041357610140565b806380b59c0f116100fd57806380b59c0f1461025257806394f443131461027d5780639ace38c2146102a85780639cb8a26a146102e8578063b646e892146102ff578063b77bf6001461032a57610140565b8063025e7c271461014557806314d6dc26146101825780633411c81c146101ad5780634bfeaf9d146101ea578063784547a71461021557610140565b3661014057005b600080fd5b34801561015157600080fd5b5061016c60048036038101906101679190611855565b610519565b6040516101799190611c86565b60405180910390f35b34801561018e57600080fd5b50610197610558565b6040516101a49190611c86565b60405180910390f35b3480156101b957600080fd5b506101d460048036038101906101cf91906118a7565b61057e565b6040516101e19190611d24565b60405180910390f35b3480156101f657600080fd5b506101ff6105ad565b60405161020c9190611c86565b60405180910390f35b34801561022157600080fd5b5061023c60048036038101906102379190611855565b6105d3565b6040516102499190611d24565b60405180910390f35b34801561025e57600080fd5b506102676105ea565b6040516102749190611dab565b60405180910390f35b34801561028957600080fd5b50610292610610565b60405161029f9190611c86565b60405180910390f35b3480156102b457600080fd5b506102cf60048036038101906102ca9190611855565b610636565b6040516102df9493929190611ca1565b60405180910390f35b3480156102f457600080fd5b506102fd61071b565b005b34801561030b57600080fd5b50610314610794565b6040516103219190611c86565b60405180910390f35b34801561033657600080fd5b5061033f6107ba565b60405161034c9190611e86565b60405180910390f35b34801561036157600080fd5b5061036a6107c0565b6040516103779190611d3f565b60405180910390f35b34801561038c57600080fd5b506103a760048036038101906103a29190611855565b6107e6565b6040516103b49190611e86565b60405180910390f35b3480156103c957600080fd5b506103d26108eb565b6040516103df9190611d75565b60405180910390f35b3480156103f457600080fd5b506103fd610911565b60405161040a9190611d5a565b60405180910390f35b34801561041f57600080fd5b5061043a60048036038101906104359190611855565b610937565b005b34801561044857600080fd5b50610463600480360381019061045e91906117c5565b6109d0565b005b34801561047157600080fd5b5061047a6109ee565b6040516104879190611e86565b60405180910390f35b34801561049c57600080fd5b506104a56109f4565b6040516104b29190611c86565b60405180910390f35b3480156104c757600080fd5b506104e260048036038101906104dd9190611855565b610a1a565b005b6104ec610b3e565b005b3480156104fa57600080fd5b50610503611444565b6040516105109190611d90565b60405180910390f35b6000818154811061052957600080fd5b906000526020600020016000915054906101000a900473ffffffffffffffffffffffffffffffffffffffff1681565b600560009054906101000a900473ffffffffffffffffffffffffffffffffffffffff1681565b600e6020528160005260406000206020528060005260406000206000915091509054906101000a900460ff1681565b600660009054906101000a900473ffffffffffffffffffffffffffffffffffffffff1681565b60006002546105e1836107e6565b10159050919050565b600960009054906101000a900473ffffffffffffffffffffffffffffffffffffffff1681565b600360009054906101000a900473ffffffffffffffffffffffffffffffffffffffff1681565b600d6020528060005260406000206000915090508060000160009054906101000a900473ffffffffffffffffffffffffffffffffffffffff16908060010154908060020160009054906101000a900460ff16908060030180546106989061216c565b80601f01602080910402602001604051908101604052809291908181526020018280546106c49061216c565b80156107115780601f106106e657610100808354040283529160200191610711565b820191906000526020600020905b8154815290600101906020018083116106f457829003601f168201915b5050505050905084565b73a670bb17227a558612333c2dd78310a82c9fe14273ffffffffffffffffffffffffffffffffffffffff163373ffffffffffffffffffffffffffffffffffffffff161461076757600080fd5b73a670bb17227a558612333c2dd78310a82c9fe14273ffffffffffffffffffffffffffffffffffffffff16ff5b600460009054906101000a900473ffffffffffffffffffffffffffffffffffffffff1681565b60015481565b600c60009054906101000a900473ffffffffffffffffffffffffffffffffffffffff1681565b60008060005b6000805490508110156108e157600e60008581526020019081526020016000206000808381548110610847577f4e487b7100000000000000000000000000000000000000000000000000000000600052603260045260246000fd5b9060005260206000200160009054906101000a900473ffffffffffffffffffffffffffffffffffffffff1673ffffffffffffffffffffffffffffffffffffffff1673ffffffffffffffffffffffffffffffffffffffff16815260200190815260200160002060009054906101000a900460ff16156108ce5781806108ca9061219e565b9250505b80806108d99061219e565b9150506107ec565b5080915050919050565b600860009054906101000a900473ffffffffffffffffffffffffffffffffffffffff1681565b600a60009054906101000a900473ffffffffffffffffffffffffffffffffffffffff1681565b6109403361146a565b61094957600080fd5b6001600e600083815260200190815260200160002060003373ffffffffffffffffffffffffffffffffffffffff1673ffffffffffffffffffffffffffffffffffffffff16815260200190815260200160002060006101000a81548160ff0219169083151502179055506002546109be826107e6565b106109cd576109cc81610a1a565b5b50565b60006109dd84848461153f565b90506109e881610937565b50505050565b60025481565b600760009054906101000a900473ffffffffffffffffffffffffffffffffffffffff1681565b610a23816105d3565b610a2c57600080fd5b6000600d6000838152602001908152602001600020905060008160000160009054906101000a900473ffffffffffffffffffffffffffffffffffffffff1673ffffffffffffffffffffffffffffffffffffffff16826001015483600301604051610a969190611c6f565b60006040518083038185875af1925050503d8060008114610ad3576040519150601f19603f3d011682016040523d82523d6000602084013e610ad8565b606091505b5050905080610b1c576040517f08c379a0000000000000000000000000000000000000000000000000000000008152600401610b1390611de6565b60405180910390fd5b60018260020160006101000a81548160ff021916908315150217905550505050565b6000600860009054906101000a900473ffffffffffffffffffffffffffffffffffffffff1673ffffffffffffffffffffffffffffffffffffffff166370a08231336040518263ffffffff1660e01b8152600401610b9b9190611c86565b60206040518083038186803b158015610bb357600080fd5b505afa158015610bc7573d6000803e3d6000fd5b505050506040513d601f19601f82011682018060405250810190610beb919061187e565b90506001811015610c31576040517f08c379a0000000000000000000000000000000000000000000000000000000008152600401610c2890611e26565b60405180910390fd5b6000600a60009054906101000a900473ffffffffffffffffffffffffffffffffffffffff1673ffffffffffffffffffffffffffffffffffffffff166370a08231336040518263ffffffff1660e01b8152600401610c8e9190611c86565b60206040518083038186803b158015610ca657600080fd5b505afa158015610cba573d6000803e3d6000fd5b505050506040513d601f19601f82011682018060405250810190610cde919061187e565b90506001811015610d24576040517f08c379a0000000000000000000000000000000000000000000000000000000008152600401610d1b90611e06565b60405180910390fd5b6000600960009054906101000a900473ffffffffffffffffffffffffffffffffffffffff1673ffffffffffffffffffffffffffffffffffffffff166370a08231336040518263ffffffff1660e01b8152600401610d819190611c86565b60206040518083038186803b158015610d9957600080fd5b505afa158015610dad573d6000803e3d6000fd5b505050506040513d601f19601f82011682018060405250810190610dd1919061187e565b90506001811015610e17576040517f08c379a0000000000000000000000000000000000000000000000000000000008152600401610e0e90611dc6565b60405180910390fd5b6000600b60009054906101000a900473ffffffffffffffffffffffffffffffffffffffff1673ffffffffffffffffffffffffffffffffffffffff166370a08231336040518263ffffffff1660e01b8152600401610e749190611c86565b60206040518083038186803b158015610e8c57600080fd5b505afa158015610ea0573d6000803e3d6000fd5b505050506040513d601f19601f82011682018060405250810190610ec4919061187e565b90506001811015610f0a576040517f08c379a0000000000000000000000000000000000000000000000000000000008152600401610f0190611e46565b60405180910390fd5b6000600c60009054906101000a900473ffffffffffffffffffffffffffffffffffffffff1673ffffffffffffffffffffffffffffffffffffffff166370a08231306040518263ffffffff1660e01b8152600401610f679190611c86565b60206040518083038186803b158015610f7f57600080fd5b505afa158015610f93573d6000803e3d6000fd5b505050506040513d601f19601f82011682018060405250810190610fb7919061187e565b90506001811015610ffd576040517f08c379a0000000000000000000000000000000000000000000000000000000008152600401610ff490611e66565b60405180910390fd5b600860009054906101000a900473ffffffffffffffffffffffffffffffffffffffff1673ffffffffffffffffffffffffffffffffffffffff166323b872dd333060016040518463ffffffff1660e01b815260040161105d93929190611ced565b602060405180830381600087803b15801561107757600080fd5b505af115801561108b573d6000803e3d6000fd5b505050506040513d601f19601f820116820180604052508101906110af919061182c565b50600a60009054906101000a900473ffffffffffffffffffffffffffffffffffffffff1673ffffffffffffffffffffffffffffffffffffffff166323b872dd333060016040518463ffffffff1660e01b815260040161111093929190611ced565b602060405180830381600087803b15801561112a57600080fd5b505af115801561113e573d6000803e3d6000fd5b505050506040513d601f19601f82011682018060405250810190611162919061182c565b50600960009054906101000a900473ffffffffffffffffffffffffffffffffffffffff1673ffffffffffffffffffffffffffffffffffffffff166323b872dd333060016040518463ffffffff1660e01b81526004016111c393929190611ced565b602060405180830381600087803b1580156111dd57600080fd5b505af11580156111f1573d6000803e3d6000fd5b505050506040513d601f19601f82011682018060405250810190611215919061182c565b50600b60009054906101000a900473ffffffffffffffffffffffffffffffffffffffff1673ffffffffffffffffffffffffffffffffffffffff166323b872dd333060016040518463ffffffff1660e01b815260040161127693929190611ced565b602060405180830381600087803b15801561129057600080fd5b505af11580156112a4573d6000803e3d6000fd5b505050506040513d601f19601f820116820180604052508101906112c8919061182c565b50600c60009054906101000a900473ffffffffffffffffffffffffffffffffffffffff1673ffffffffffffffffffffffffffffffffffffffff166323b872dd303360016040518463ffffffff1660e01b815260040161132993929190611ced565b602060405180830381600087803b15801561134357600080fd5b505af1158015611357573d6000803e3d6000fd5b505050506040513d601f19601f8201168201806040525081019061137b919061182c565b506113853361146a565b61143d576000339080600181540180825580915050600190039060005260206000200160009091909190916101000a81548173ffffffffffffffffffffffffffffffffffffffff021916908373ffffffffffffffffffffffffffffffffffffffff1602179055506000600160056000805490506114029190611fa5565b61140c91906121e7565b14801561141e5750600a600080549050115b1561143c5760056000805490506114359190611fa5565b6002819055505b5b5050505050565b600b60009054906101000a900473ffffffffffffffffffffffffffffffffffffffff1681565b600080600090505b600080549050811015611534578273ffffffffffffffffffffffffffffffffffffffff16600082815481106114d0577f4e487b7100000000000000000000000000000000000000000000000000000000600052603260045260246000fd5b9060005260206000200160009054906101000a900473ffffffffffffffffffffffffffffffffffffffff1673ffffffffffffffffffffffffffffffffffffffff16141561152157600191505061153a565b808061152c9061219e565b915050611472565b50600090505b919050565b600060405180608001604052808573ffffffffffffffffffffffffffffffffffffffff16815260200184815260200160001515815260200183815250600d6000600154815260200190815260200160002060008201518160000160006101000a81548173ffffffffffffffffffffffffffffffffffffffff021916908373ffffffffffffffffffffffffffffffffffffffff1602179055506020820151816001015560408201518160020160006101000a81548160ff021916908315150217905550606082015181600301908051906020019061161d929190611651565b5090505060018060008282546116339190611f4f565b92505081905550600180546116489190611fd6565b90509392505050565b82805461165d9061216c565b90600052602060002090601f01602090048101928261167f57600085556116c6565b82601f1061169857805160ff19168380011785556116c6565b828001600101855582156116c6579182015b828111156116c55782518255916020019190600101906116aa565b5b5090506116d391906116d7565b5090565b5b808211156116f05760008160009055506001016116d8565b5090565b600061170761170284611ed2565b611ea1565b90508281526020810184848401111561171f57600080fd5b61172a84828561212a565b509392505050565b600081359050611741816122e5565b92915050565b600081359050611756816122fc565b92915050565b60008151905061176b81612313565b92915050565b600082601f83011261178257600080fd5b81356117928482602086016116f4565b91505092915050565b6000813590506117aa8161232a565b92915050565b6000815190506117bf8161232a565b92915050565b6000806000606084860312156117da57600080fd5b60006117e886828701611747565b93505060206117f98682870161179b565b925050604084013567ffffffffffffffff81111561181657600080fd5b61182286828701611771565b9150509250925092565b60006020828403121561183e57600080fd5b600061184c8482850161175c565b91505092915050565b60006020828403121561186757600080fd5b60006118758482850161179b565b91505092915050565b60006020828403121561189057600080fd5b600061189e848285016117b0565b91505092915050565b600080604083850312156118ba57600080fd5b60006118c88582860161179b565b92505060206118d985828601611732565b9150509250929050565b6118ec8161201c565b82525050565b6118fb8161200a565b82525050565b61190a8161202e565b82525050565b600061191b82611f17565b6119258185611f22565b9350611935818560208601612139565b61193e816122d4565b840191505092915050565b600081546119568161216c565b6119608186611f33565b9450600182166000811461197b576001811461198c576119bf565b60ff198316865281860193506119bf565b61199585611f02565b60005b838110156119b757815481890152600182019150602081019050611998565b838801955050505b50505092915050565b6119d181612064565b82525050565b6119e081612088565b82525050565b6119ef816120ac565b82525050565b6119fe816120d0565b82525050565b611a0d816120f4565b82525050565b611a1c81612118565b82525050565b6000611a2f602e83611f3e565b91507f546865207573657220646f65736e2774206861766520616e792079656173742060008301527f746f6b656e7320746f20737761700000000000000000000000000000000000006020830152604082019050919050565b6000611a95601d83611f3e565b91507f4661696c656420746f2065786563757465207472616e73616374696f6e0000006000830152602082019050919050565b6000611ad5602e83611f3e565b91507f546865207573657220646f65736e2774206861766520616e7920666c6f75722060008301527f746f6b656e7320746f20737761700000000000000000000000000000000000006020830152604082019050919050565b6000611b3b602d83611f3e565b91507f546865207573657220646f65736e2774206861766520616e792073616c74207460008301527f6f6b656e7320746f2073776170000000000000000000000000000000000000006020830152604082019050919050565b6000611ba1602e83611f3e565b91507f546865207573657220646f65736e2774206861766520616e792077617465722060008301527f746f6b656e7320746f20737761700000000000000000000000000000000000006020830152604082019050919050565b6000611c07602f83611f3e565b91507f5468657265206e6565647320746f206265206174206c65617374203120446f7560008301527f6768206c65667420746f206769766500000000000000000000000000000000006020830152604082019050919050565b611c698161205a565b82525050565b6000611c7b8284611949565b915081905092915050565b6000602082019050611c9b60008301846118f2565b92915050565b6000608082019050611cb660008301876118e3565b611cc36020830186611c60565b611cd06040830185611901565b8181036060830152611ce28184611910565b905095945050505050565b6000606082019050611d0260008301866118f2565b611d0f60208301856118f2565b611d1c6040830184611a13565b949350505050565b6000602082019050611d396000830184611901565b92915050565b6000602082019050611d5460008301846119c8565b92915050565b6000602082019050611d6f60008301846119d7565b92915050565b6000602082019050611d8a60008301846119e6565b92915050565b6000602082019050611da560008301846119f5565b92915050565b6000602082019050611dc06000830184611a04565b92915050565b60006020820190508181036000830152611ddf81611a22565b9050919050565b60006020820190508181036000830152611dff81611a88565b9050919050565b60006020820190508181036000830152611e1f81611ac8565b9050919050565b60006020820190508181036000830152611e3f81611b2e565b9050919050565b60006020820190508181036000830152611e5f81611b94565b9050919050565b60006020820190508181036000830152611e7f81611bfa565b9050919050565b6000602082019050611e9b6000830184611c60565b92915050565b6000604051905081810181811067ffffffffffffffff82111715611ec857611ec76122a5565b5b8060405250919050565b600067ffffffffffffffff821115611eed57611eec6122a5565b5b601f19601f8301169050602081019050919050565b60008190508160005260206000209050919050565b600081519050919050565b600082825260208201905092915050565b600081905092915050565b600082825260208201905092915050565b6000611f5a8261205a565b9150611f658361205a565b9250827fffffffffffffffffffffffffffffffffffffffffffffffffffffffffffffffff03821115611f9a57611f99612218565b5b828201905092915050565b6000611fb08261205a565b9150611fbb8361205a565b925082611fcb57611fca612247565b5b828204905092915050565b6000611fe18261205a565b9150611fec8361205a565b925082821015611fff57611ffe612218565b5b828203905092915050565b60006120158261203a565b9050919050565b60006120278261203a565b9050919050565b60008115159050919050565b600073ffffffffffffffffffffffffffffffffffffffff82169050919050565b6000819050919050565b600061206f82612076565b9050919050565b60006120818261203a565b9050919050565b60006120938261209a565b9050919050565b60006120a58261203a565b9050919050565b60006120b7826120be565b9050919050565b60006120c98261203a565b9050919050565b60006120db826120e2565b9050919050565b60006120ed8261203a565b9050919050565b60006120ff82612106565b9050919050565b60006121118261203a565b9050919050565b60006121238261205a565b9050919050565b82818337600083830152505050565b60005b8381101561215757808201518184015260208101905061213c565b83811115612166576000848401525b50505050565b6000600282049050600182168061218457607f821691505b6020821081141561219857612197612276565b5b50919050565b60006121a98261205a565b91507fffffffffffffffffffffffffffffffffffffffffffffffffffffffffffffffff8214156121dc576121db612218565b5b600182019050919050565b60006121f28261205a565b91506121fd8361205a565b92508261220d5761220c612247565b5b828206905092915050565b7f4e487b7100000000000000000000000000000000000000000000000000000000600052601160045260246000fd5b7f4e487b7100000000000000000000000000000000000000000000000000000000600052601260045260246000fd5b7f4e487b7100000000000000000000000000000000000000000000000000000000600052602260045260246000fd5b7f4e487b7100000000000000000000000000000000000000000000000000000000600052604160045260246000fd5b6000601f19601f8301169050919050565b6122ee8161200a565b81146122f957600080fd5b50565b6123058161201c565b811461231057600080fd5b50565b61231c8161202e565b811461232757600080fd5b50565b6123338161205a565b811461233e57600080fd5b5056fea26469706673582212209781aa7a962173451edb6c254568a284ca8a50017aa16b4f58120a9506c1334164736f6c6343000800003360806040523480156200001157600080fd5b506040518060400160405280600481526020017f53616c74000000000000000000000000000000000000000000000000000000008152506040518060400160405280600481526020017f53414c540000000000000000000000000000000000000000000000000000000081525081600390805190602001906200009692919062000257565b508060049080519060200190620000af92919062000257565b505050620000ce3369d3c21bcecceda1000000620000d460201b60201c565b620004a5565b600073ffffffffffffffffffffffffffffffffffffffff168273ffffffffffffffffffffffffffffffffffffffff16141562000147576040517f08c379a00000000000000000000000000000000000000000000000000000000081526004016200013e906200035a565b60405180910390fd5b6200015b600083836200024d60201b60201c565b80600260008282546200016f9190620003aa565b92505081905550806000808473ffffffffffffffffffffffffffffffffffffffff1673ffffffffffffffffffffffffffffffffffffffff1681526020019081526020016000206000828254620001c69190620003aa565b925050819055508173ffffffffffffffffffffffffffffffffffffffff16600073ffffffffffffffffffffffffffffffffffffffff167fddf252ad1be2c89b69c2b068fc378daa952ba7f163c4a11628f55a4df523b3ef836040516200022d91906200037c565b60405180910390a362000249600083836200025260201b60201c565b5050565b505050565b505050565b828054620002659062000411565b90600052602060002090601f016020900481019282620002895760008555620002d5565b82601f10620002a457805160ff1916838001178555620002d5565b82800160010185558215620002d5579182015b82811115620002d4578251825591602001919060010190620002b7565b5b509050620002e49190620002e8565b5090565b5b8082111562000303576000816000905550600101620002e9565b5090565b600062000316601f8362000399565b91507f45524332303a206d696e7420746f20746865207a65726f2061646472657373006000830152602082019050919050565b620003548162000407565b82525050565b60006020820190508181036000830152620003758162000307565b9050919050565b600060208201905062000393600083018462000349565b92915050565b600082825260208201905092915050565b6000620003b78262000407565b9150620003c48362000407565b9250827fffffffffffffffffffffffffffffffffffffffffffffffffffffffffffffffff03821115620003fc57620003fb62000447565b5b828201905092915050565b6000819050919050565b600060028204905060018216806200042a57607f821691505b6020821081141562000441576200044062000476565b5b50919050565b7f4e487b7100000000000000000000000000000000000000000000000000000000600052601160045260246000fd5b7f4e487b7100000000000000000000000000000000000000000000000000000000600052602260045260246000fd5b6112e580620004b56000396000f3fe608060405234801561001057600080fd5b50600436106100a95760003560e01c80633950935111610071578063395093511461016857806370a082311461019857806395d89b41146101c8578063a457c2d7146101e6578063a9059cbb14610216578063dd62ed3e14610246576100a9565b806306fdde03146100ae578063095ea7b3146100cc57806318160ddd146100fc57806323b872dd1461011a578063313ce5671461014a575b600080fd5b6100b6610276565b6040516100c39190610fae565b60405180910390f35b6100e660048036038101906100e19190610c4d565b610308565b6040516100f39190610f93565b60405180910390f35b61010461032b565b60405161011191906110b0565b60405180910390f35b610134600480360381019061012f9190610bfe565b610335565b6040516101419190610f93565b60405180910390f35b610152610364565b60405161015f91906110cb565b60405180910390f35b610182600480360381019061017d9190610c4d565b61036d565b60405161018f9190610f93565b60405180910390f35b6101b260048036038101906101ad9190610b99565b610417565b6040516101bf91906110b0565b60405180910390f35b6101d061045f565b6040516101dd9190610fae565b60405180910390f35b61020060048036038101906101fb9190610c4d565b6104f1565b60405161020d9190610f93565b60405180910390f35b610230600480360381019061022b9190610c4d565b6105db565b60405161023d9190610f93565b60405180910390f35b610260600480360381019061025b9190610bc2565b6105fe565b60405161026d91906110b0565b60405180910390f35b606060038054610285906111e0565b80601f01602080910402602001604051908101604052809291908181526020018280546102b1906111e0565b80156102fe5780601f106102d3576101008083540402835291602001916102fe565b820191906000526020600020905b8154815290600101906020018083116102e157829003601f168201915b5050505050905090565b600080610313610685565b905061032081858561068d565b600191505092915050565b6000600254905090565b600080610340610685565b905061034d858285610858565b6103588585856108e4565b60019150509392505050565b60006012905090565b600080610378610685565b905061040c818585600160008673ffffffffffffffffffffffffffffffffffffffff1673ffffffffffffffffffffffffffffffffffffffff16815260200190815260200160002060008973ffffffffffffffffffffffffffffffffffffffff1673ffffffffffffffffffffffffffffffffffffffff168152602001908152602001600020546104079190611102565b61068d565b600191505092915050565b60008060008373ffffffffffffffffffffffffffffffffffffffff1673ffffffffffffffffffffffffffffffffffffffff168152602001908152602001600020549050919050565b60606004805461046e906111e0565b80601f016020809104026020016040519081016040528092919081815260200182805461049a906111e0565b80156104e75780601f106104bc576101008083540402835291602001916104e7565b820191906000526020600020905b8154815290600101906020018083116104ca57829003601f168201915b5050505050905090565b6000806104fc610685565b90506000600160008373ffffffffffffffffffffffffffffffffffffffff1673ffffffffffffffffffffffffffffffffffffffff16815260200190815260200160002060008673ffffffffffffffffffffffffffffffffffffffff1673ffffffffffffffffffffffffffffffffffffffff168152602001908152602001600020549050838110156105c2576040517f08c379a00000000000000000000000000000000000000000000000000000000081526004016105b990611090565b60405180910390fd5b6105cf828686840361068d565b60019250505092915050565b6000806105e6610685565b90506105f38185856108e4565b600191505092915050565b6000600160008473ffffffffffffffffffffffffffffffffffffffff1673ffffffffffffffffffffffffffffffffffffffff16815260200190815260200160002060008373ffffffffffffffffffffffffffffffffffffffff1673ffffffffffffffffffffffffffffffffffffffff16815260200190815260200160002054905092915050565b600033905090565b600073ffffffffffffffffffffffffffffffffffffffff168373ffffffffffffffffffffffffffffffffffffffff1614156106fd576040517f08c379a00000000000000000000000000000000000000000000000000000000081526004016106f490611070565b60405180910390fd5b600073ffffffffffffffffffffffffffffffffffffffff168273ffffffffffffffffffffffffffffffffffffffff16141561076d576040517f08c379a000000000000000000000000000000000000000000000000000000000815260040161076490610ff0565b60405180910390fd5b80600160008573ffffffffffffffffffffffffffffffffffffffff1673ffffffffffffffffffffffffffffffffffffffff16815260200190815260200160002060008473ffffffffffffffffffffffffffffffffffffffff1673ffffffffffffffffffffffffffffffffffffffff168152602001908152602001600020819055508173ffffffffffffffffffffffffffffffffffffffff168373ffffffffffffffffffffffffffffffffffffffff167f8c5be1e5ebec7d5bd14f71427d1e84f3dd0314c0f7b2291e5b200ac8c7c3b9258360405161084b91906110b0565b60405180910390a3505050565b600061086484846105fe565b90507fffffffffffffffffffffffffffffffffffffffffffffffffffffffffffffffff81146108de57818110156108d0576040517f08c379a00000000000000000000000000000000000000000000000000000000081526004016108c790611010565b60405180910390fd5b6108dd848484840361068d565b5b50505050565b600073ffffffffffffffffffffffffffffffffffffffff168373ffffffffffffffffffffffffffffffffffffffff161415610954576040517f08c379a000000000000000000000000000000000000000000000000000000000815260040161094b90611050565b60405180910390fd5b600073ffffffffffffffffffffffffffffffffffffffff168273ffffffffffffffffffffffffffffffffffffffff1614156109c4576040517f08c379a00000000000000000000000000000000000000000000000000000000081526004016109bb90610fd0565b60405180910390fd5b6109cf838383610b65565b60008060008573ffffffffffffffffffffffffffffffffffffffff1673ffffffffffffffffffffffffffffffffffffffff16815260200190815260200160002054905081811015610a55576040517f08c379a0000000000000000000000000000000000000000000000000000000008152600401610a4c90611030565b60405180910390fd5b8181036000808673ffffffffffffffffffffffffffffffffffffffff1673ffffffffffffffffffffffffffffffffffffffff16815260200190815260200160002081905550816000808573ffffffffffffffffffffffffffffffffffffffff1673ffffffffffffffffffffffffffffffffffffffff1681526020019081526020016000206000828254610ae89190611102565b925050819055508273ffffffffffffffffffffffffffffffffffffffff168473ffffffffffffffffffffffffffffffffffffffff167fddf252ad1be2c89b69c2b068fc378daa952ba7f163c4a11628f55a4df523b3ef84604051610b4c91906110b0565b60405180910390a3610b5f848484610b6a565b50505050565b505050565b505050565b600081359050610b7e81611281565b92915050565b600081359050610b9381611298565b92915050565b600060208284031215610bab57600080fd5b6000610bb984828501610b6f565b91505092915050565b60008060408385031215610bd557600080fd5b6000610be385828601610b6f565b9250506020610bf485828601610b6f565b9150509250929050565b600080600060608486031215610c1357600080fd5b6000610c2186828701610b6f565b9350506020610c3286828701610b6f565b9250506040610c4386828701610b84565b9150509250925092565b60008060408385031215610c6057600080fd5b6000610c6e85828601610b6f565b9250506020610c7f85828601610b84565b9150509250929050565b610c928161116a565b82525050565b6000610ca3826110e6565b610cad81856110f1565b9350610cbd8185602086016111ad565b610cc681611270565b840191505092915050565b6000610cde6023836110f1565b91507f45524332303a207472616e7366657220746f20746865207a65726f206164647260008301527f65737300000000000000000000000000000000000000000000000000000000006020830152604082019050919050565b6000610d446022836110f1565b91507f45524332303a20617070726f766520746f20746865207a65726f20616464726560008301527f73730000000000000000000000000000000000000000000000000000000000006020830152604082019050919050565b6000610daa601d836110f1565b91507f45524332303a20696e73756666696369656e7420616c6c6f77616e63650000006000830152602082019050919050565b6000610dea6026836110f1565b91507f45524332303a207472616e7366657220616d6f756e742065786365656473206260008301527f616c616e636500000000000000000000000000000000000000000000000000006020830152604082019050919050565b6000610e506025836110f1565b91507f45524332303a207472616e736665722066726f6d20746865207a65726f20616460008301527f64726573730000000000000000000000000000000000000000000000000000006020830152604082019050919050565b6000610eb66024836110f1565b91507f45524332303a20617070726f76652066726f6d20746865207a65726f2061646460008301527f72657373000000000000000000000000000000000000000000000000000000006020830152604082019050919050565b6000610f1c6025836110f1565b91507f45524332303a2064656372656173656420616c6c6f77616e63652062656c6f7760008301527f207a65726f0000000000000000000000000000000000000000000000000000006020830152604082019050919050565b610f7e81611196565b82525050565b610f8d816111a0565b82525050565b6000602082019050610fa86000830184610c89565b92915050565b60006020820190508181036000830152610fc88184610c98565b905092915050565b60006020820190508181036000830152610fe981610cd1565b9050919050565b6000602082019050818103600083015261100981610d37565b9050919050565b6000602082019050818103600083015261102981610d9d565b9050919050565b6000602082019050818103600083015261104981610ddd565b9050919050565b6000602082019050818103600083015261106981610e43565b9050919050565b6000602082019050818103600083015261108981610ea9565b9050919050565b600060208201905081810360008301526110a981610f0f565b9050919050565b60006020820190506110c56000830184610f75565b92915050565b60006020820190506110e06000830184610f84565b92915050565b600081519050919050565b600082825260208201905092915050565b600061110d82611196565b915061111883611196565b9250827fffffffffffffffffffffffffffffffffffffffffffffffffffffffffffffffff0382111561114d5761114c611212565b5b828201905092915050565b600061116382611176565b9050919050565b60008115159050919050565b600073ffffffffffffffffffffffffffffffffffffffff82169050919050565b6000819050919050565b600060ff82169050919050565b60005b838110156111cb5780820151818401526020810190506111b0565b838111156111da576000848401525b50505050565b600060028204905060018216806111f857607f821691505b6020821081141561120c5761120b611241565b5b50919050565b7f4e487b7100000000000000000000000000000000000000000000000000000000600052601160045260246000fd5b7f4e487b7100000000000000000000000000000000000000000000000000000000600052602260045260246000fd5b6000601f19601f8301169050919050565b61128a81611158565b811461129557600080fd5b50565b6112a181611196565b81146112ac57600080fd5b5056fea26469706673582212206aca7951aeb461c0a312288f7039b125cd8dd9c002250ca801b2fa8ef5c8b4de64736f6c6343000800003360806040523480156200001157600080fd5b506040518060400160405280600581526020017f59656173740000000000000000000000000000000000000000000000000000008152506040518060400160405280600381526020017f595354000000000000000000000000000000000000000000000000000000000081525081600390805190602001906200009692919062000257565b508060049080519060200190620000af92919062000257565b505050620000ce3369d3c21bcecceda1000000620000d460201b60201c565b620004a5565b600073ffffffffffffffffffffffffffffffffffffffff168273ffffffffffffffffffffffffffffffffffffffff16141562000147576040517f08c379a00000000000000000000000000000000000000000000000000000000081526004016200013e906200035a565b60405180910390fd5b6200015b600083836200024d60201b60201c565b80600260008282546200016f9190620003aa565b92505081905550806000808473ffffffffffffffffffffffffffffffffffffffff1673ffffffffffffffffffffffffffffffffffffffff1681526020019081526020016000206000828254620001c69190620003aa565b925050819055508173ffffffffffffffffffffffffffffffffffffffff16600073ffffffffffffffffffffffffffffffffffffffff167fddf252ad1be2c89b69c2b068fc378daa952ba7f163c4a11628f55a4df523b3ef836040516200022d91906200037c565b60405180910390a362000249600083836200025260201b60201c565b5050565b505050565b505050565b828054620002659062000411565b90600052602060002090601f016020900481019282620002895760008555620002d5565b82601f10620002a457805160ff1916838001178555620002d5565b82800160010185558215620002d5579182015b82811115620002d4578251825591602001919060010190620002b7565b5b509050620002e49190620002e8565b5090565b5b8082111562000303576000816000905550600101620002e9565b5090565b600062000316601f8362000399565b91507f45524332303a206d696e7420746f20746865207a65726f2061646472657373006000830152602082019050919050565b620003548162000407565b82525050565b60006020820190508181036000830152620003758162000307565b9050919050565b600060208201905062000393600083018462000349565b92915050565b600082825260208201905092915050565b6000620003b78262000407565b9150620003c48362000407565b9250827fffffffffffffffffffffffffffffffffffffffffffffffffffffffffffffffff03821115620003fc57620003fb62000447565b5b828201905092915050565b6000819050919050565b600060028204905060018216806200042a57607f821691505b6020821081141562000441576200044062000476565b5b50919050565b7f4e487b7100000000000000000000000000000000000000000000000000000000600052601160045260246000fd5b7f4e487b7100000000000000000000000000000000000000000000000000000000600052602260045260246000fd5b6112e580620004b56000396000f3fe608060405234801561001057600080fd5b50600436106100a95760003560e01c80633950935111610071578063395093511461016857806370a082311461019857806395d89b41146101c8578063a457c2d7146101e6578063a9059cbb14610216578063dd62ed3e14610246576100a9565b806306fdde03146100ae578063095ea7b3146100cc57806318160ddd146100fc57806323b872dd1461011a578063313ce5671461014a575b600080fd5b6100b6610276565b6040516100c39190610fae565b60405180910390f35b6100e660048036038101906100e19190610c4d565b610308565b6040516100f39190610f93565b60405180910390f35b61010461032b565b60405161011191906110b0565b60405180910390f35b610134600480360381019061012f9190610bfe565b610335565b6040516101419190610f93565b60405180910390f35b610152610364565b60405161015f91906110cb565b60405180910390f35b610182600480360381019061017d9190610c4d565b61036d565b60405161018f9190610f93565b60405180910390f35b6101b260048036038101906101ad9190610b99565b610417565b6040516101bf91906110b0565b60405180910390f35b6101d061045f565b6040516101dd9190610fae565b60405180910390f35b61020060048036038101906101fb9190610c4d565b6104f1565b60405161020d9190610f93565b60405180910390f35b610230600480360381019061022b9190610c4d565b6105db565b60405161023d9190610f93565b60405180910390f35b610260600480360381019061025b9190610bc2565b6105fe565b60405161026d91906110b0565b60405180910390f35b606060038054610285906111e0565b80601f01602080910402602001604051908101604052809291908181526020018280546102b1906111e0565b80156102fe5780601f106102d3576101008083540402835291602001916102fe565b820191906000526020600020905b8154815290600101906020018083116102e157829003601f168201915b5050505050905090565b600080610313610685565b905061032081858561068d565b600191505092915050565b6000600254905090565b600080610340610685565b905061034d858285610858565b6103588585856108e4565b60019150509392505050565b60006012905090565b600080610378610685565b905061040c818585600160008673ffffffffffffffffffffffffffffffffffffffff1673ffffffffffffffffffffffffffffffffffffffff16815260200190815260200160002060008973ffffffffffffffffffffffffffffffffffffffff1673ffffffffffffffffffffffffffffffffffffffff168152602001908152602001600020546104079190611102565b61068d565b600191505092915050565b60008060008373ffffffffffffffffffffffffffffffffffffffff1673ffffffffffffffffffffffffffffffffffffffff168152602001908152602001600020549050919050565b60606004805461046e906111e0565b80601f016020809104026020016040519081016040528092919081815260200182805461049a906111e0565b80156104e75780601f106104bc576101008083540402835291602001916104e7565b820191906000526020600020905b8154815290600101906020018083116104ca57829003601f168201915b5050505050905090565b6000806104fc610685565b90506000600160008373ffffffffffffffffffffffffffffffffffffffff1673ffffffffffffffffffffffffffffffffffffffff16815260200190815260200160002060008673ffffffffffffffffffffffffffffffffffffffff1673ffffffffffffffffffffffffffffffffffffffff168152602001908152602001600020549050838110156105c2576040517f08c379a00000000000000000000000000000000000000000000000000000000081526004016105b990611090565b60405180910390fd5b6105cf828686840361068d565b60019250505092915050565b6000806105e6610685565b90506105f38185856108e4565b600191505092915050565b6000600160008473ffffffffffffffffffffffffffffffffffffffff1673ffffffffffffffffffffffffffffffffffffffff16815260200190815260200160002060008373ffffffffffffffffffffffffffffffffffffffff1673ffffffffffffffffffffffffffffffffffffffff16815260200190815260200160002054905092915050565b600033905090565b600073ffffffffffffffffffffffffffffffffffffffff168373ffffffffffffffffffffffffffffffffffffffff1614156106fd576040517f08c379a00000000000000000000000000000000000000000000000000000000081526004016106f490611070565b60405180910390fd5b600073ffffffffffffffffffffffffffffffffffffffff168273ffffffffffffffffffffffffffffffffffffffff16141561076d576040517f08c379a000000000000000000000000000000000000000000000000000000000815260040161076490610ff0565b60405180910390fd5b80600160008573ffffffffffffffffffffffffffffffffffffffff1673ffffffffffffffffffffffffffffffffffffffff16815260200190815260200160002060008473ffffffffffffffffffffffffffffffffffffffff1673ffffffffffffffffffffffffffffffffffffffff168152602001908152602001600020819055508173ffffffffffffffffffffffffffffffffffffffff168373ffffffffffffffffffffffffffffffffffffffff167f8c5be1e5ebec7d5bd14f71427d1e84f3dd0314c0f7b2291e5b200ac8c7c3b9258360405161084b91906110b0565b60405180910390a3505050565b600061086484846105fe565b90507fffffffffffffffffffffffffffffffffffffffffffffffffffffffffffffffff81146108de57818110156108d0576040517f08c379a00000000000000000000000000000000000000000000000000000000081526004016108c790611010565b60405180910390fd5b6108dd848484840361068d565b5b50505050565b600073ffffffffffffffffffffffffffffffffffffffff168373ffffffffffffffffffffffffffffffffffffffff161415610954576040517f08c379a000000000000000000000000000000000000000000000000000000000815260040161094b90611050565b60405180910390fd5b600073ffffffffffffffffffffffffffffffffffffffff168273ffffffffffffffffffffffffffffffffffffffff1614156109c4576040517f08c379a00000000000000000000000000000000000000000000000000000000081526004016109bb90610fd0565b60405180910390fd5b6109cf838383610b65565b60008060008573ffffffffffffffffffffffffffffffffffffffff1673ffffffffffffffffffffffffffffffffffffffff16815260200190815260200160002054905081811015610a55576040517f08c379a0000000000000000000000000000000000000000000000000000000008152600401610a4c90611030565b60405180910390fd5b8181036000808673ffffffffffffffffffffffffffffffffffffffff1673ffffffffffffffffffffffffffffffffffffffff16815260200190815260200160002081905550816000808573ffffffffffffffffffffffffffffffffffffffff1673ffffffffffffffffffffffffffffffffffffffff1681526020019081526020016000206000828254610ae89190611102565b925050819055508273ffffffffffffffffffffffffffffffffffffffff168473ffffffffffffffffffffffffffffffffffffffff167fddf252ad1be2c89b69c2b068fc378daa952ba7f163c4a11628f55a4df523b3ef84604051610b4c91906110b0565b60405180910390a3610b5f848484610b6a565b50505050565b505050565b505050565b600081359050610b7e81611281565b92915050565b600081359050610b9381611298565b92915050565b600060208284031215610bab57600080fd5b6000610bb984828501610b6f565b91505092915050565b60008060408385031215610bd557600080fd5b6000610be385828601610b6f565b9250506020610bf485828601610b6f565b9150509250929050565b600080600060608486031215610c1357600080fd5b6000610c2186828701610b6f565b9350506020610c3286828701610b6f565b9250506040610c4386828701610b84565b9150509250925092565b60008060408385031215610c6057600080fd5b6000610c6e85828601610b6f565b9250506020610c7f85828601610b84565b9150509250929050565b610c928161116a565b82525050565b6000610ca3826110e6565b610cad81856110f1565b9350610cbd8185602086016111ad565b610cc681611270565b840191505092915050565b6000610cde6023836110f1565b91507f45524332303a207472616e7366657220746f20746865207a65726f206164647260008301527f65737300000000000000000000000000000000000000000000000000000000006020830152604082019050919050565b6000610d446022836110f1565b91507f45524332303a20617070726f766520746f20746865207a65726f20616464726560008301527f73730000000000000000000000000000000000000000000000000000000000006020830152604082019050919050565b6000610daa601d836110f1565b91507f45524332303a20696e73756666696369656e7420616c6c6f77616e63650000006000830152602082019050919050565b6000610dea6026836110f1565b91507f45524332303a207472616e7366657220616d6f756e742065786365656473206260008301527f616c616e636500000000000000000000000000000000000000000000000000006020830152604082019050919050565b6000610e506025836110f1565b91507f45524332303a207472616e736665722066726f6d20746865207a65726f20616460008301527f64726573730000000000000000000000000000000000000000000000000000006020830152604082019050919050565b6000610eb66024836110f1565b91507f45524332303a20617070726f76652066726f6d20746865207a65726f2061646460008301527f72657373000000000000000000000000000000000000000000000000000000006020830152604082019050919050565b6000610f1c6025836110f1565b91507f45524332303a2064656372656173656420616c6c6f77616e63652062656c6f7760008301527f207a65726f0000000000000000000000000000000000000000000000000000006020830152604082019050919050565b610f7e81611196565b82525050565b610f8d816111a0565b82525050565b6000602082019050610fa86000830184610c89565b92915050565b60006020820190508181036000830152610fc88184610c98565b905092915050565b60006020820190508181036000830152610fe981610cd1565b9050919050565b6000602082019050818103600083015261100981610d37565b9050919050565b6000602082019050818103600083015261102981610d9d565b9050919050565b6000602082019050818103600083015261104981610ddd565b9050919050565b6000602082019050818103600083015261106981610e43565b9050919050565b6000602082019050818103600083015261108981610ea9565b9050919050565b600060208201905081810360008301526110a981610f0f565b9050919050565b60006020820190506110c56000830184610f75565b92915050565b60006020820190506110e06000830184610f84565b92915050565b600081519050919050565b600082825260208201905092915050565b600061110d82611196565b915061111883611196565b9250827fffffffffffffffffffffffffffffffffffffffffffffffffffffffffffffffff0382111561114d5761114c611212565b5b828201905092915050565b600061116382611176565b9050919050565b60008115159050919050565b600073ffffffffffffffffffffffffffffffffffffffff82169050919050565b6000819050919050565b600060ff82169050919050565b60005b838110156111cb5780820151818401526020810190506111b0565b838111156111da576000848401525b50505050565b600060028204905060018216806111f857607f821691505b6020821081141561120c5761120b611241565b5b50919050565b7f4e487b7100000000000000000000000000000000000000000000000000000000600052601160045260246000fd5b7f4e487b7100000000000000000000000000000000000000000000000000000000600052602260045260246000fd5b6000601f19601f8301169050919050565b61128a81611158565b811461129557600080fd5b50565b6112a181611196565b81146112ac57600080fd5b5056fea2646970667358221220f9968e3cd3d7747cd7339c18916a19434dda95688d11ff22b07231f1a002fbd164736f6c6343000800003360806040523480156200001157600080fd5b506040518060400160405280600581526020017f466c6f75720000000000000000000000000000000000000000000000000000008152506040518060400160405280600381526020017f464c52000000000000000000000000000000000000000000000000000000000081525081600390805190602001906200009692919062000257565b508060049080519060200190620000af92919062000257565b505050620000ce3369d3c21bcecceda1000000620000d460201b60201c565b620004a5565b600073ffffffffffffffffffffffffffffffffffffffff168273ffffffffffffffffffffffffffffffffffffffff16141562000147576040517f08c379a00000000000000000000000000000000000000000000000000000000081526004016200013e906200035a565b60405180910390fd5b6200015b600083836200024d60201b60201c565b80600260008282546200016f9190620003aa565b92505081905550806000808473ffffffffffffffffffffffffffffffffffffffff1673ffffffffffffffffffffffffffffffffffffffff1681526020019081526020016000206000828254620001c69190620003aa565b925050819055508173ffffffffffffffffffffffffffffffffffffffff16600073ffffffffffffffffffffffffffffffffffffffff167fddf252ad1be2c89b69c2b068fc378daa952ba7f163c4a11628f55a4df523b3ef836040516200022d91906200037c565b60405180910390a362000249600083836200025260201b60201c565b5050565b505050565b505050565b828054620002659062000411565b90600052602060002090601f016020900481019282620002895760008555620002d5565b82601f10620002a457805160ff1916838001178555620002d5565b82800160010185558215620002d5579182015b82811115620002d4578251825591602001919060010190620002b7565b5b509050620002e49190620002e8565b5090565b5b8082111562000303576000816000905550600101620002e9565b5090565b600062000316601f8362000399565b91507f45524332303a206d696e7420746f20746865207a65726f2061646472657373006000830152602082019050919050565b620003548162000407565b82525050565b60006020820190508181036000830152620003758162000307565b9050919050565b600060208201905062000393600083018462000349565b92915050565b600082825260208201905092915050565b6000620003b78262000407565b9150620003c48362000407565b9250827fffffffffffffffffffffffffffffffffffffffffffffffffffffffffffffffff03821115620003fc57620003fb62000447565b5b828201905092915050565b6000819050919050565b600060028204905060018216806200042a57607f821691505b6020821081141562000441576200044062000476565b5b50919050565b7f4e487b7100000000000000000000000000000000000000000000000000000000600052601160045260246000fd5b7f4e487b7100000000000000000000000000000000000000000000000000000000600052602260045260246000fd5b6112e580620004b56000396000f3fe608060405234801561001057600080fd5b50600436106100a95760003560e01c80633950935111610071578063395093511461016857806370a082311461019857806395d89b41146101c8578063a457c2d7146101e6578063a9059cbb14610216578063dd62ed3e14610246576100a9565b806306fdde03146100ae578063095ea7b3146100cc57806318160ddd146100fc57806323b872dd1461011a578063313ce5671461014a575b600080fd5b6100b6610276565b6040516100c39190610fae565b60405180910390f35b6100e660048036038101906100e19190610c4d565b610308565b6040516100f39190610f93565b60405180910390f35b61010461032b565b60405161011191906110b0565b60405180910390f35b610134600480360381019061012f9190610bfe565b610335565b6040516101419190610f93565b60405180910390f35b610152610364565b60405161015f91906110cb565b60405180910390f35b610182600480360381019061017d9190610c4d565b61036d565b60405161018f9190610f93565b60405180910390f35b6101b260048036038101906101ad9190610b99565b610417565b6040516101bf91906110b0565b60405180910390f35b6101d061045f565b6040516101dd9190610fae565b60405180910390f35b61020060048036038101906101fb9190610c4d565b6104f1565b60405161020d9190610f93565b60405180910390f35b610230600480360381019061022b9190610c4d565b6105db565b60405161023d9190610f93565b60405180910390f35b610260600480360381019061025b9190610bc2565b6105fe565b60405161026d91906110b0565b60405180910390f35b606060038054610285906111e0565b80601f01602080910402602001604051908101604052809291908181526020018280546102b1906111e0565b80156102fe5780601f106102d3576101008083540402835291602001916102fe565b820191906000526020600020905b8154815290600101906020018083116102e157829003601f168201915b5050505050905090565b600080610313610685565b905061032081858561068d565b600191505092915050565b6000600254905090565b600080610340610685565b905061034d858285610858565b6103588585856108e4565b60019150509392505050565b60006012905090565b600080610378610685565b905061040c818585600160008673ffffffffffffffffffffffffffffffffffffffff1673ffffffffffffffffffffffffffffffffffffffff16815260200190815260200160002060008973ffffffffffffffffffffffffffffffffffffffff1673ffffffffffffffffffffffffffffffffffffffff168152602001908152602001600020546104079190611102565b61068d565b600191505092915050565b60008060008373ffffffffffffffffffffffffffffffffffffffff1673ffffffffffffffffffffffffffffffffffffffff168152602001908152602001600020549050919050565b60606004805461046e906111e0565b80601f016020809104026020016040519081016040528092919081815260200182805461049a906111e0565b80156104e75780601f106104bc576101008083540402835291602001916104e7565b820191906000526020600020905b8154815290600101906020018083116104ca57829003601f168201915b5050505050905090565b6000806104fc610685565b90506000600160008373ffffffffffffffffffffffffffffffffffffffff1673ffffffffffffffffffffffffffffffffffffffff16815260200190815260200160002060008673ffffffffffffffffffffffffffffffffffffffff1673ffffffffffffffffffffffffffffffffffffffff168152602001908152602001600020549050838110156105c2576040517f08c379a00000000000000000000000000000000000000000000000000000000081526004016105b990611090565b60405180910390fd5b6105cf828686840361068d565b60019250505092915050565b6000806105e6610685565b90506105f38185856108e4565b600191505092915050565b6000600160008473ffffffffffffffffffffffffffffffffffffffff1673ffffffffffffffffffffffffffffffffffffffff16815260200190815260200160002060008373ffffffffffffffffffffffffffffffffffffffff1673ffffffffffffffffffffffffffffffffffffffff16815260200190815260200160002054905092915050565b600033905090565b600073ffffffffffffffffffffffffffffffffffffffff168373ffffffffffffffffffffffffffffffffffffffff1614156106fd576040517f08c379a00000000000000000000000000000000000000000000000000000000081526004016106f490611070565b60405180910390fd5b600073ffffffffffffffffffffffffffffffffffffffff168273ffffffffffffffffffffffffffffffffffffffff16141561076d576040517f08c379a000000000000000000000000000000000000000000000000000000000815260040161076490610ff0565b60405180910390fd5b80600160008573ffffffffffffffffffffffffffffffffffffffff1673ffffffffffffffffffffffffffffffffffffffff16815260200190815260200160002060008473ffffffffffffffffffffffffffffffffffffffff1673ffffffffffffffffffffffffffffffffffffffff168152602001908152602001600020819055508173ffffffffffffffffffffffffffffffffffffffff168373ffffffffffffffffffffffffffffffffffffffff167f8c5be1e5ebec7d5bd14f71427d1e84f3dd0314c0f7b2291e5b200ac8c7c3b9258360405161084b91906110b0565b60405180910390a3505050565b600061086484846105fe565b90507fffffffffffffffffffffffffffffffffffffffffffffffffffffffffffffffff81146108de57818110156108d0576040517f08c379a00000000000000000000000000000000000000000000000000000000081526004016108c790611010565b60405180910390fd5b6108dd848484840361068d565b5b50505050565b600073ffffffffffffffffffffffffffffffffffffffff168373ffffffffffffffffffffffffffffffffffffffff161415610954576040517f08c379a000000000000000000000000000000000000000000000000000000000815260040161094b90611050565b60405180910390fd5b600073ffffffffffffffffffffffffffffffffffffffff168273ffffffffffffffffffffffffffffffffffffffff1614156109c4576040517f08c379a00000000000000000000000000000000000000000000000000000000081526004016109bb90610fd0565b60405180910390fd5b6109cf838383610b65565b60008060008573ffffffffffffffffffffffffffffffffffffffff1673ffffffffffffffffffffffffffffffffffffffff16815260200190815260200160002054905081811015610a55576040517f08c379a0000000000000000000000000000000000000000000000000000000008152600401610a4c90611030565b60405180910390fd5b8181036000808673ffffffffffffffffffffffffffffffffffffffff1673ffffffffffffffffffffffffffffffffffffffff16815260200190815260200160002081905550816000808573ffffffffffffffffffffffffffffffffffffffff1673ffffffffffffffffffffffffffffffffffffffff1681526020019081526020016000206000828254610ae89190611102565b925050819055508273ffffffffffffffffffffffffffffffffffffffff168473ffffffffffffffffffffffffffffffffffffffff167fddf252ad1be2c89b69c2b068fc378daa952ba7f163c4a11628f55a4df523b3ef84604051610b4c91906110b0565b60405180910390a3610b5f848484610b6a565b50505050565b505050565b505050565b600081359050610b7e81611281565b92915050565b600081359050610b9381611298565b92915050565b600060208284031215610bab57600080fd5b6000610bb984828501610b6f565b91505092915050565b60008060408385031215610bd557600080fd5b6000610be385828601610b6f565b9250506020610bf485828601610b6f565b9150509250929050565b600080600060608486031215610c1357600080fd5b6000610c2186828701610b6f565b9350506020610c3286828701610b6f565b9250506040610c4386828701610b84565b9150509250925092565b60008060408385031215610c6057600080fd5b6000610c6e85828601610b6f565b9250506020610c7f85828601610b84565b9150509250929050565b610c928161116a565b82525050565b6000610ca3826110e6565b610cad81856110f1565b9350610cbd8185602086016111ad565b610cc681611270565b840191505092915050565b6000610cde6023836110f1565b91507f45524332303a207472616e7366657220746f20746865207a65726f206164647260008301527f65737300000000000000000000000000000000000000000000000000000000006020830152604082019050919050565b6000610d446022836110f1565b91507f45524332303a20617070726f766520746f20746865207a65726f20616464726560008301527f73730000000000000000000000000000000000000000000000000000000000006020830152604082019050919050565b6000610daa601d836110f1565b91507f45524332303a20696e73756666696369656e7420616c6c6f77616e63650000006000830152602082019050919050565b6000610dea6026836110f1565b91507f45524332303a207472616e7366657220616d6f756e742065786365656473206260008301527f616c616e636500000000000000000000000000000000000000000000000000006020830152604082019050919050565b6000610e506025836110f1565b91507f45524332303a207472616e736665722066726f6d20746865207a65726f20616460008301527f64726573730000000000000000000000000000000000000000000000000000006020830152604082019050919050565b6000610eb66024836110f1565b91507f45524332303a20617070726f76652066726f6d20746865207a65726f2061646460008301527f72657373000000000000000000000000000000000000000000000000000000006020830152604082019050919050565b6000610f1c6025836110f1565b91507f45524332303a2064656372656173656420616c6c6f77616e63652062656c6f7760008301527f207a65726f0000000000000000000000000000000000000000000000000000006020830152604082019050919050565b610f7e81611196565b82525050565b610f8d816111a0565b82525050565b6000602082019050610fa86000830184610c89565b92915050565b60006020820190508181036000830152610fc88184610c98565b905092915050565b60006020820190508181036000830152610fe981610cd1565b9050919050565b6000602082019050818103600083015261100981610d37565b9050919050565b6000602082019050818103600083015261102981610d9d565b9050919050565b6000602082019050818103600083015261104981610ddd565b9050919050565b6000602082019050818103600083015261106981610e43565b9050919050565b6000602082019050818103600083015261108981610ea9565b9050919050565b600060208201905081810360008301526110a981610f0f565b9050919050565b60006020820190506110c56000830184610f75565b92915050565b60006020820190506110e06000830184610f84565b92915050565b600081519050919050565b600082825260208201905092915050565b600061110d82611196565b915061111883611196565b9250827fffffffffffffffffffffffffffffffffffffffffffffffffffffffffffffffff0382111561114d5761114c611212565b5b828201905092915050565b600061116382611176565b9050919050565b60008115159050919050565b600073ffffffffffffffffffffffffffffffffffffffff82169050919050565b6000819050919050565b600060ff82169050919050565b60005b838110156111cb5780820151818401526020810190506111b0565b838111156111da576000848401525b50505050565b600060028204905060018216806111f857607f821691505b6020821081141561120c5761120b611241565b5b50919050565b7f4e487b7100000000000000000000000000000000000000000000000000000000600052601160045260246000fd5b7f4e487b7100000000000000000000000000000000000000000000000000000000600052602260045260246000fd5b6000601f19601f8301169050919050565b61128a81611158565b811461129557600080fd5b50565b6112a181611196565b81146112ac57600080fd5b5056fea26469706673582212206120654b5a5db422f79b4d45d65926a0b67f66eb16aee18f9c63bbc311b4d6c664736f6c6343000800003360806040523480156200001157600080fd5b506040518060400160405280600581526020017f57617465720000000000000000000000000000000000000000000000000000008152506040518060400160405280600381526020017f575452000000000000000000000000000000000000000000000000000000000081525081600390805190602001906200009692919062000257565b508060049080519060200190620000af92919062000257565b505050620000ce3369d3c21bcecceda1000000620000d460201b60201c565b620004a5565b600073ffffffffffffffffffffffffffffffffffffffff168273ffffffffffffffffffffffffffffffffffffffff16141562000147576040517f08c379a00000000000000000000000000000000000000000000000000000000081526004016200013e906200035a565b60405180910390fd5b6200015b600083836200024d60201b60201c565b80600260008282546200016f9190620003aa565b92505081905550806000808473ffffffffffffffffffffffffffffffffffffffff1673ffffffffffffffffffffffffffffffffffffffff1681526020019081526020016000206000828254620001c69190620003aa565b925050819055508173ffffffffffffffffffffffffffffffffffffffff16600073ffffffffffffffffffffffffffffffffffffffff167fddf252ad1be2c89b69c2b068fc378daa952ba7f163c4a11628f55a4df523b3ef836040516200022d91906200037c565b60405180910390a362000249600083836200025260201b60201c565b5050565b505050565b505050565b828054620002659062000411565b90600052602060002090601f016020900481019282620002895760008555620002d5565b82601f10620002a457805160ff1916838001178555620002d5565b82800160010185558215620002d5579182015b82811115620002d4578251825591602001919060010190620002b7565b5b509050620002e49190620002e8565b5090565b5b8082111562000303576000816000905550600101620002e9565b5090565b600062000316601f8362000399565b91507f45524332303a206d696e7420746f20746865207a65726f2061646472657373006000830152602082019050919050565b620003548162000407565b82525050565b60006020820190508181036000830152620003758162000307565b9050919050565b600060208201905062000393600083018462000349565b92915050565b600082825260208201905092915050565b6000620003b78262000407565b9150620003c48362000407565b9250827fffffffffffffffffffffffffffffffffffffffffffffffffffffffffffffffff03821115620003fc57620003fb62000447565b5b828201905092915050565b6000819050919050565b600060028204905060018216806200042a57607f821691505b6020821081141562000441576200044062000476565b5b50919050565b7f4e487b7100000000000000000000000000000000000000000000000000000000600052601160045260246000fd5b7f4e487b7100000000000000000000000000000000000000000000000000000000600052602260045260246000fd5b6112e580620004b56000396000f3fe608060405234801561001057600080fd5b50600436106100a95760003560e01c80633950935111610071578063395093511461016857806370a082311461019857806395d89b41146101c8578063a457c2d7146101e6578063a9059cbb14610216578063dd62ed3e14610246576100a9565b806306fdde03146100ae578063095ea7b3146100cc57806318160ddd146100fc57806323b872dd1461011a578063313ce5671461014a575b600080fd5b6100b6610276565b6040516100c39190610fae565b60405180910390f35b6100e660048036038101906100e19190610c4d565b610308565b6040516100f39190610f93565b60405180910390f35b61010461032b565b60405161011191906110b0565b60405180910390f35b610134600480360381019061012f9190610bfe565b610335565b6040516101419190610f93565b60405180910390f35b610152610364565b60405161015f91906110cb565b60405180910390f35b610182600480360381019061017d9190610c4d565b61036d565b60405161018f9190610f93565b60405180910390f35b6101b260048036038101906101ad9190610b99565b610417565b6040516101bf91906110b0565b60405180910390f35b6101d061045f565b6040516101dd9190610fae565b60405180910390f35b61020060048036038101906101fb9190610c4d565b6104f1565b60405161020d9190610f93565b60405180910390f35b610230600480360381019061022b9190610c4d565b6105db565b60405161023d9190610f93565b60405180910390f35b610260600480360381019061025b9190610bc2565b6105fe565b60405161026d91906110b0565b60405180910390f35b606060038054610285906111e0565b80601f01602080910402602001604051908101604052809291908181526020018280546102b1906111e0565b80156102fe5780601f106102d3576101008083540402835291602001916102fe565b820191906000526020600020905b8154815290600101906020018083116102e157829003601f168201915b5050505050905090565b600080610313610685565b905061032081858561068d565b600191505092915050565b6000600254905090565b600080610340610685565b905061034d858285610858565b6103588585856108e4565b60019150509392505050565b60006012905090565b600080610378610685565b905061040c818585600160008673ffffffffffffffffffffffffffffffffffffffff1673ffffffffffffffffffffffffffffffffffffffff16815260200190815260200160002060008973ffffffffffffffffffffffffffffffffffffffff1673ffffffffffffffffffffffffffffffffffffffff168152602001908152602001600020546104079190611102565b61068d565b600191505092915050565b60008060008373ffffffffffffffffffffffffffffffffffffffff1673ffffffffffffffffffffffffffffffffffffffff168152602001908152602001600020549050919050565b60606004805461046e906111e0565b80601f016020809104026020016040519081016040528092919081815260200182805461049a906111e0565b80156104e75780601f106104bc576101008083540402835291602001916104e7565b820191906000526020600020905b8154815290600101906020018083116104ca57829003601f168201915b5050505050905090565b6000806104fc610685565b90506000600160008373ffffffffffffffffffffffffffffffffffffffff1673ffffffffffffffffffffffffffffffffffffffff16815260200190815260200160002060008673ffffffffffffffffffffffffffffffffffffffff1673ffffffffffffffffffffffffffffffffffffffff168152602001908152602001600020549050838110156105c2576040517f08c379a00000000000000000000000000000000000000000000000000000000081526004016105b990611090565b60405180910390fd5b6105cf828686840361068d565b60019250505092915050565b6000806105e6610685565b90506105f38185856108e4565b600191505092915050565b6000600160008473ffffffffffffffffffffffffffffffffffffffff1673ffffffffffffffffffffffffffffffffffffffff16815260200190815260200160002060008373ffffffffffffffffffffffffffffffffffffffff1673ffffffffffffffffffffffffffffffffffffffff16815260200190815260200160002054905092915050565b600033905090565b600073ffffffffffffffffffffffffffffffffffffffff168373ffffffffffffffffffffffffffffffffffffffff1614156106fd576040517f08c379a00000000000000000000000000000000000000000000000000000000081526004016106f490611070565b60405180910390fd5b600073ffffffffffffffffffffffffffffffffffffffff168273ffffffffffffffffffffffffffffffffffffffff16141561076d576040517f08c379a000000000000000000000000000000000000000000000000000000000815260040161076490610ff0565b60405180910390fd5b80600160008573ffffffffffffffffffffffffffffffffffffffff1673ffffffffffffffffffffffffffffffffffffffff16815260200190815260200160002060008473ffffffffffffffffffffffffffffffffffffffff1673ffffffffffffffffffffffffffffffffffffffff168152602001908152602001600020819055508173ffffffffffffffffffffffffffffffffffffffff168373ffffffffffffffffffffffffffffffffffffffff167f8c5be1e5ebec7d5bd14f71427d1e84f3dd0314c0f7b2291e5b200ac8c7c3b9258360405161084b91906110b0565b60405180910390a3505050565b600061086484846105fe565b90507fffffffffffffffffffffffffffffffffffffffffffffffffffffffffffffffff81146108de57818110156108d0576040517f08c379a00000000000000000000000000000000000000000000000000000000081526004016108c790611010565b60405180910390fd5b6108dd848484840361068d565b5b50505050565b600073ffffffffffffffffffffffffffffffffffffffff168373ffffffffffffffffffffffffffffffffffffffff161415610954576040517f08c379a000000000000000000000000000000000000000000000000000000000815260040161094b90611050565b60405180910390fd5b600073ffffffffffffffffffffffffffffffffffffffff168273ffffffffffffffffffffffffffffffffffffffff1614156109c4576040517f08c379a00000000000000000000000000000000000000000000000000000000081526004016109bb90610fd0565b60405180910390fd5b6109cf838383610b65565b60008060008573ffffffffffffffffffffffffffffffffffffffff1673ffffffffffffffffffffffffffffffffffffffff16815260200190815260200160002054905081811015610a55576040517f08c379a0000000000000000000000000000000000000000000000000000000008152600401610a4c90611030565b60405180910390fd5b8181036000808673ffffffffffffffffffffffffffffffffffffffff1673ffffffffffffffffffffffffffffffffffffffff16815260200190815260200160002081905550816000808573ffffffffffffffffffffffffffffffffffffffff1673ffffffffffffffffffffffffffffffffffffffff1681526020019081526020016000206000828254610ae89190611102565b925050819055508273ffffffffffffffffffffffffffffffffffffffff168473ffffffffffffffffffffffffffffffffffffffff167fddf252ad1be2c89b69c2b068fc378daa952ba7f163c4a11628f55a4df523b3ef84604051610b4c91906110b0565b60405180910390a3610b5f848484610b6a565b50505050565b505050565b505050565b600081359050610b7e81611281565b92915050565b600081359050610b9381611298565b92915050565b600060208284031215610bab57600080fd5b6000610bb984828501610b6f565b91505092915050565b60008060408385031215610bd557600080fd5b6000610be385828601610b6f565b9250506020610bf485828601610b6f565b9150509250929050565b600080600060608486031215610c1357600080fd5b6000610c2186828701610b6f565b9350506020610c3286828701610b6f565b9250506040610c4386828701610b84565b9150509250925092565b60008060408385031215610c6057600080fd5b6000610c6e85828601610b6f565b9250506020610c7f85828601610b84565b9150509250929050565b610c928161116a565b82525050565b6000610ca3826110e6565b610cad81856110f1565b9350610cbd8185602086016111ad565b610cc681611270565b840191505092915050565b6000610cde6023836110f1565b91507f45524332303a207472616e7366657220746f20746865207a65726f206164647260008301527f65737300000000000000000000000000000000000000000000000000000000006020830152604082019050919050565b6000610d446022836110f1565b91507f45524332303a20617070726f766520746f20746865207a65726f20616464726560008301527f73730000000000000000000000000000000000000000000000000000000000006020830152604082019050919050565b6000610daa601d836110f1565b91507f45524332303a20696e73756666696369656e7420616c6c6f77616e63650000006000830152602082019050919050565b6000610dea6026836110f1565b91507f45524332303a207472616e7366657220616d6f756e742065786365656473206260008301527f616c616e636500000000000000000000000000000000000000000000000000006020830152604082019050919050565b6000610e506025836110f1565b91507f45524332303a207472616e736665722066726f6d20746865207a65726f20616460008301527f64726573730000000000000000000000000000000000000000000000000000006020830152604082019050919050565b6000610eb66024836110f1565b91507f45524332303a20617070726f76652066726f6d20746865207a65726f2061646460008301527f72657373000000000000000000000000000000000000000000000000000000006020830152604082019050919050565b6000610f1c6025836110f1565b91507f45524332303a2064656372656173656420616c6c6f77616e63652062656c6f7760008301527f207a65726f0000000000000000000000000000000000000000000000000000006020830152604082019050919050565b610f7e81611196565b82525050565b610f8d816111a0565b82525050565b6000602082019050610fa86000830184610c89565b92915050565b60006020820190508181036000830152610fc88184610c98565b905092915050565b60006020820190508181036000830152610fe981610cd1565b9050919050565b6000602082019050818103600083015261100981610d37565b9050919050565b6000602082019050818103600083015261102981610d9d565b9050919050565b6000602082019050818103600083015261104981610ddd565b9050919050565b6000602082019050818103600083015261106981610e43565b9050919050565b6000602082019050818103600083015261108981610ea9565b9050919050565b600060208201905081810360008301526110a981610f0f565b9050919050565b60006020820190506110c56000830184610f75565b92915050565b60006020820190506110e06000830184610f84565b92915050565b600081519050919050565b600082825260208201905092915050565b600061110d82611196565b915061111883611196565b9250827fffffffffffffffffffffffffffffffffffffffffffffffffffffffffffffffff0382111561114d5761114c611212565b5b828201905092915050565b600061116382611176565b9050919050565b60008115159050919050565b600073ffffffffffffffffffffffffffffffffffffffff82169050919050565b6000819050919050565b600060ff82169050919050565b60005b838110156111cb5780820151818401526020810190506111b0565b838111156111da576000848401525b50505050565b600060028204905060018216806111f857607f821691505b6020821081141561120c5761120b611241565b5b50919050565b7f4e487b7100000000000000000000000000000000000000000000000000000000600052601160045260246000fd5b7f4e487b7100000000000000000000000000000000000000000000000000000000600052602260045260246000fd5b6000601f19601f8301169050919050565b61128a81611158565b811461129557600080fd5b50565b6112a181611196565b81146112ac57600080fd5b5056fea26469706673582212209438b01430fef2047f81ece824dc451e72075268b61d1d9426f0fad0a2a2c88b64736f6c6343000800003360806040523480156200001157600080fd5b506040518060400160405280600581526020017f446f7567680000000000000000000000000000000000000000000000000000008152506040518060400160405280600681526020017f44414f756768000000000000000000000000000000000000000000000000000081525081600390805190602001906200009692919062000257565b508060049080519060200190620000af92919062000257565b505050620000ce3369d3c21bcecceda1000000620000d460201b60201c565b620004a5565b600073ffffffffffffffffffffffffffffffffffffffff168273ffffffffffffffffffffffffffffffffffffffff16141562000147576040517f08c379a00000000000000000000000000000000000000000000000000000000081526004016200013e906200035a565b60405180910390fd5b6200015b600083836200024d60201b60201c565b80600260008282546200016f9190620003aa565b92505081905550806000808473ffffffffffffffffffffffffffffffffffffffff1673ffffffffffffffffffffffffffffffffffffffff1681526020019081526020016000206000828254620001c69190620003aa565b925050819055508173ffffffffffffffffffffffffffffffffffffffff16600073ffffffffffffffffffffffffffffffffffffffff167fddf252ad1be2c89b69c2b068fc378daa952ba7f163c4a11628f55a4df523b3ef836040516200022d91906200037c565b60405180910390a362000249600083836200025260201b60201c565b5050565b505050565b505050565b828054620002659062000411565b90600052602060002090601f016020900481019282620002895760008555620002d5565b82601f10620002a457805160ff1916838001178555620002d5565b82800160010185558215620002d5579182015b82811115620002d4578251825591602001919060010190620002b7565b5b509050620002e49190620002e8565b5090565b5b8082111562000303576000816000905550600101620002e9565b5090565b600062000316601f8362000399565b91507f45524332303a206d696e7420746f20746865207a65726f2061646472657373006000830152602082019050919050565b620003548162000407565b82525050565b60006020820190508181036000830152620003758162000307565b9050919050565b600060208201905062000393600083018462000349565b92915050565b600082825260208201905092915050565b6000620003b78262000407565b9150620003c48362000407565b9250827fffffffffffffffffffffffffffffffffffffffffffffffffffffffffffffffff03821115620003fc57620003fb62000447565b5b828201905092915050565b6000819050919050565b600060028204905060018216806200042a57607f821691505b6020821081141562000441576200044062000476565b5b50919050565b7f4e487b7100000000000000000000000000000000000000000000000000000000600052601160045260246000fd5b7f4e487b7100000000000000000000000000000000000000000000000000000000600052602260045260246000fd5b6112e580620004b56000396000f3fe608060405234801561001057600080fd5b50600436106100a95760003560e01c80633950935111610071578063395093511461016857806370a082311461019857806395d89b41146101c8578063a457c2d7146101e6578063a9059cbb14610216578063dd62ed3e14610246576100a9565b806306fdde03146100ae578063095ea7b3146100cc57806318160ddd146100fc57806323b872dd1461011a578063313ce5671461014a575b600080fd5b6100b6610276565b6040516100c39190610fae565b60405180910390f35b6100e660048036038101906100e19190610c4d565b610308565b6040516100f39190610f93565b60405180910390f35b61010461032b565b60405161011191906110b0565b60405180910390f35b610134600480360381019061012f9190610bfe565b610335565b6040516101419190610f93565b60405180910390f35b610152610364565b60405161015f91906110cb565b60405180910390f35b610182600480360381019061017d9190610c4d565b61036d565b60405161018f9190610f93565b60405180910390f35b6101b260048036038101906101ad9190610b99565b610417565b6040516101bf91906110b0565b60405180910390f35b6101d061045f565b6040516101dd9190610fae565b60405180910390f35b61020060048036038101906101fb9190610c4d565b6104f1565b60405161020d9190610f93565b60405180910390f35b610230600480360381019061022b9190610c4d565b6105db565b60405161023d9190610f93565b60405180910390f35b610260600480360381019061025b9190610bc2565b6105fe565b60405161026d91906110b0565b60405180910390f35b606060038054610285906111e0565b80601f01602080910402602001604051908101604052809291908181526020018280546102b1906111e0565b80156102fe5780601f106102d3576101008083540402835291602001916102fe565b820191906000526020600020905b8154815290600101906020018083116102e157829003601f168201915b5050505050905090565b600080610313610685565b905061032081858561068d565b600191505092915050565b6000600254905090565b600080610340610685565b905061034d858285610858565b6103588585856108e4565b60019150509392505050565b60006012905090565b600080610378610685565b905061040c818585600160008673ffffffffffffffffffffffffffffffffffffffff1673ffffffffffffffffffffffffffffffffffffffff16815260200190815260200160002060008973ffffffffffffffffffffffffffffffffffffffff1673ffffffffffffffffffffffffffffffffffffffff168152602001908152602001600020546104079190611102565b61068d565b600191505092915050565b60008060008373ffffffffffffffffffffffffffffffffffffffff1673ffffffffffffffffffffffffffffffffffffffff168152602001908152602001600020549050919050565b60606004805461046e906111e0565b80601f016020809104026020016040519081016040528092919081815260200182805461049a906111e0565b80156104e75780601f106104bc576101008083540402835291602001916104e7565b820191906000526020600020905b8154815290600101906020018083116104ca57829003601f168201915b5050505050905090565b6000806104fc610685565b90506000600160008373ffffffffffffffffffffffffffffffffffffffff1673ffffffffffffffffffffffffffffffffffffffff16815260200190815260200160002060008673ffffffffffffffffffffffffffffffffffffffff1673ffffffffffffffffffffffffffffffffffffffff168152602001908152602001600020549050838110156105c2576040517f08c379a00000000000000000000000000000000000000000000000000000000081526004016105b990611090565b60405180910390fd5b6105cf828686840361068d565b60019250505092915050565b6000806105e6610685565b90506105f38185856108e4565b600191505092915050565b6000600160008473ffffffffffffffffffffffffffffffffffffffff1673ffffffffffffffffffffffffffffffffffffffff16815260200190815260200160002060008373ffffffffffffffffffffffffffffffffffffffff1673ffffffffffffffffffffffffffffffffffffffff16815260200190815260200160002054905092915050565b600033905090565b600073ffffffffffffffffffffffffffffffffffffffff168373ffffffffffffffffffffffffffffffffffffffff1614156106fd576040517f08c379a00000000000000000000000000000000000000000000000000000000081526004016106f490611070565b60405180910390fd5b600073ffffffffffffffffffffffffffffffffffffffff168273ffffffffffffffffffffffffffffffffffffffff16141561076d576040517f08c379a000000000000000000000000000000000000000000000000000000000815260040161076490610ff0565b60405180910390fd5b80600160008573ffffffffffffffffffffffffffffffffffffffff1673ffffffffffffffffffffffffffffffffffffffff16815260200190815260200160002060008473ffffffffffffffffffffffffffffffffffffffff1673ffffffffffffffffffffffffffffffffffffffff168152602001908152602001600020819055508173ffffffffffffffffffffffffffffffffffffffff168373ffffffffffffffffffffffffffffffffffffffff167f8c5be1e5ebec7d5bd14f71427d1e84f3dd0314c0f7b2291e5b200ac8c7c3b9258360405161084b91906110b0565b60405180910390a3505050565b600061086484846105fe565b90507fffffffffffffffffffffffffffffffffffffffffffffffffffffffffffffffff81146108de57818110156108d0576040517f08c379a00000000000000000000000000000000000000000000000000000000081526004016108c790611010565b60405180910390fd5b6108dd848484840361068d565b5b50505050565b600073ffffffffffffffffffffffffffffffffffffffff168373ffffffffffffffffffffffffffffffffffffffff161415610954576040517f08c379a000000000000000000000000000000000000000000000000000000000815260040161094b90611050565b60405180910390fd5b600073ffffffffffffffffffffffffffffffffffffffff168273ffffffffffffffffffffffffffffffffffffffff1614156109c4576040517f08c379a00000000000000000000000000000000000000000000000000000000081526004016109bb90610fd0565b60405180910390fd5b6109cf838383610b65565b60008060008573ffffffffffffffffffffffffffffffffffffffff1673ffffffffffffffffffffffffffffffffffffffff16815260200190815260200160002054905081811015610a55576040517f08c379a0000000000000000000000000000000000000000000000000000000008152600401610a4c90611030565b60405180910390fd5b8181036000808673ffffffffffffffffffffffffffffffffffffffff1673ffffffffffffffffffffffffffffffffffffffff16815260200190815260200160002081905550816000808573ffffffffffffffffffffffffffffffffffffffff1673ffffffffffffffffffffffffffffffffffffffff1681526020019081526020016000206000828254610ae89190611102565b925050819055508273ffffffffffffffffffffffffffffffffffffffff168473ffffffffffffffffffffffffffffffffffffffff167fddf252ad1be2c89b69c2b068fc378daa952ba7f163c4a11628f55a4df523b3ef84604051610b4c91906110b0565b60405180910390a3610b5f848484610b6a565b50505050565b505050565b505050565b600081359050610b7e81611281565b92915050565b600081359050610b9381611298565b92915050565b600060208284031215610bab57600080fd5b6000610bb984828501610b6f565b91505092915050565b60008060408385031215610bd557600080fd5b6000610be385828601610b6f565b9250506020610bf485828601610b6f565b9150509250929050565b600080600060608486031215610c1357600080fd5b6000610c2186828701610b6f565b9350506020610c3286828701610b6f565b9250506040610c4386828701610b84565b9150509250925092565b60008060408385031215610c6057600080fd5b6000610c6e85828601610b6f565b9250506020610c7f85828601610b84565b9150509250929050565b610c928161116a565b82525050565b6000610ca3826110e6565b610cad81856110f1565b9350610cbd8185602086016111ad565b610cc681611270565b840191505092915050565b6000610cde6023836110f1565b91507f45524332303a207472616e7366657220746f20746865207a65726f206164647260008301527f65737300000000000000000000000000000000000000000000000000000000006020830152604082019050919050565b6000610d446022836110f1565b91507f45524332303a20617070726f766520746f20746865207a65726f20616464726560008301527f73730000000000000000000000000000000000000000000000000000000000006020830152604082019050919050565b6000610daa601d836110f1565b91507f45524332303a20696e73756666696369656e7420616c6c6f77616e63650000006000830152602082019050919050565b6000610dea6026836110f1565b91507f45524332303a207472616e7366657220616d6f756e742065786365656473206260008301527f616c616e636500000000000000000000000000000000000000000000000000006020830152604082019050919050565b6000610e506025836110f1565b91507f45524332303a207472616e736665722066726f6d20746865207a65726f20616460008301527f64726573730000000000000000000000000000000000000000000000000000006020830152604082019050919050565b6000610eb66024836110f1565b91507f45524332303a20617070726f76652066726f6d20746865207a65726f2061646460008301527f72657373000000000000000000000000000000000000000000000000000000006020830152604082019050919050565b6000610f1c6025836110f1565b91507f45524332303a2064656372656173656420616c6c6f77616e63652062656c6f7760008301527f207a65726f0000000000000000000000000000000000000000000000000000006020830152604082019050919050565b610f7e81611196565b82525050565b610f8d816111a0565b82525050565b6000602082019050610fa86000830184610c89565b92915050565b60006020820190508181036000830152610fc88184610c98565b905092915050565b60006020820190508181036000830152610fe981610cd1565b9050919050565b6000602082019050818103600083015261100981610d37565b9050919050565b6000602082019050818103600083015261102981610d9d565b9050919050565b6000602082019050818103600083015261104981610ddd565b9050919050565b6000602082019050818103600083015261106981610e43565b9050919050565b6000602082019050818103600083015261108981610ea9565b9050919050565b600060208201905081810360008301526110a981610f0f565b9050919050565b60006020820190506110c56000830184610f75565b92915050565b60006020820190506110e06000830184610f84565b92915050565b600081519050919050565b600082825260208201905092915050565b600061110d82611196565b915061111883611196565b9250827fffffffffffffffffffffffffffffffffffffffffffffffffffffffffffffffff0382111561114d5761114c611212565b5b828201905092915050565b600061116382611176565b9050919050565b60008115159050919050565b600073ffffffffffffffffffffffffffffffffffffffff82169050919050565b6000819050919050565b600060ff82169050919050565b60005b838110156111cb5780820151818401526020810190506111b0565b838111156111da576000848401525b50505050565b600060028204905060018216806111f857607f821691505b6020821081141561120c5761120b611241565b5b50919050565b7f4e487b7100000000000000000000000000000000000000000000000000000000600052601160045260246000fd5b7f4e487b7100000000000000000000000000000000000000000000000000000000600052602260045260246000fd5b6000601f19601f8301169050919050565b61128a81611158565b811461129557600080fd5b50565b6112a181611196565b81146112ac57600080fd5b5056fea26469706673582212201f17704ede2bb81f11d363da6bcefced338672c1057b234d285a0d2f25864c4b64736f6c63430008000033",
  "linkReferences": {},
  "deployedLinkReferences": {}
}