{
  "_format": "hh-sol-artifact-1",
  "contractName": "MultiSig",
  "sourceName": "contracts/MultiSig.sol",
  "abi": [
    {
      "inputs": [
        {
          "internalType": "address[]",
          "name": "_owners",
          "type": "address[]"
        }
      ],
      "stateMutability": "nonpayable",
      "type": "constructor"
    },
    {
      "inputs": [
        {
          "internalType": "uint256",
          "name": "transactionId",
          "type": "uint256"
        }
      ],
      "name": "confirmTransaction",
      "outputs": [],
      "stateMutability": "nonpayable",
      "type": "function"
    },
    {
      "inputs": [
        {
          "internalType": "uint256",
          "name": "",
          "type": "uint256"
        },
        {
          "internalType": "address",
          "name": "",
          "type": "address"
        }
      ],
      "name": "confirmations",
      "outputs": [
        {
          "internalType": "bool",
          "name": "",
          "type": "bool"
        }
      ],
      "stateMutability": "view",
      "type": "function"
    },
    {
      "inputs": [],
      "name": "dough",
      "outputs": [
        {
          "internalType": "address",
          "name": "",
          "type": "address"
        }
      ],
      "stateMutability": "view",
      "type": "function"
    },
    {
      "inputs": [
        {
          "internalType": "uint256",
          "name": "_txId",
          "type": "uint256"
        }
      ],
      "name": "executeTransaction",
      "outputs": [],
      "stateMutability": "nonpayable",
      "type": "function"
    },
    {
      "inputs": [],
      "name": "flour",
      "outputs": [
        {
          "internalType": "address",
          "name": "",
          "type": "address"
        }
      ],
      "stateMutability": "view",
      "type": "function"
    },
    {
      "inputs": [
        {
          "internalType": "uint256",
          "name": "transactionId",
          "type": "uint256"
        }
      ],
      "name": "getConfirmationsCount",
      "outputs": [
        {
          "internalType": "uint256",
          "name": "",
          "type": "uint256"
        }
      ],
      "stateMutability": "view",
      "type": "function"
    },
    {
      "inputs": [],
      "name": "greet",
      "outputs": [
        {
          "internalType": "string",
          "name": "",
          "type": "string"
        }
      ],
      "stateMutability": "pure",
      "type": "function"
    },
    {
      "inputs": [
        {
          "internalType": "uint256",
          "name": "_txId",
          "type": "uint256"
        }
      ],
      "name": "isConfirmed",
      "outputs": [
        {
          "internalType": "bool",
          "name": "",
          "type": "bool"
        }
      ],
      "stateMutability": "view",
      "type": "function"
    },
    {
      "inputs": [],
      "name": "makeDough",
      "outputs": [],
      "stateMutability": "payable",
      "type": "function"
    },
    {
      "inputs": [
        {
          "internalType": "uint256",
          "name": "",
          "type": "uint256"
        }
      ],
      "name": "owners",
      "outputs": [
        {
          "internalType": "address",
          "name": "",
          "type": "address"
        }
      ],
      "stateMutability": "view",
      "type": "function"
    },
    {
      "inputs": [],
      "name": "required",
      "outputs": [
        {
          "internalType": "uint256",
          "name": "",
          "type": "uint256"
        }
      ],
      "stateMutability": "view",
      "type": "function"
    },
    {
      "inputs": [],
      "name": "salt",
      "outputs": [
        {
          "internalType": "address",
          "name": "",
          "type": "address"
        }
      ],
      "stateMutability": "view",
      "type": "function"
    },
    {
      "inputs": [],
      "name": "selfDestruct",
      "outputs": [],
      "stateMutability": "nonpayable",
      "type": "function"
    },
    {
      "inputs": [
        {
          "internalType": "address payable",
          "name": "dest",
          "type": "address"
        },
        {
          "internalType": "uint256",
          "name": "value",
          "type": "uint256"
        },
        {
          "internalType": "bytes",
          "name": "data",
          "type": "bytes"
        }
      ],
      "name": "submitTransaction",
      "outputs": [],
      "stateMutability": "nonpayable",
      "type": "function"
    },
    {
      "inputs": [],
      "name": "transactionCount",
      "outputs": [
        {
          "internalType": "uint256",
          "name": "",
          "type": "uint256"
        }
      ],
      "stateMutability": "view",
      "type": "function"
    },
    {
      "inputs": [
        {
          "internalType": "uint256",
          "name": "",
          "type": "uint256"
        }
      ],
      "name": "transactions",
      "outputs": [
        {
          "internalType": "address payable",
          "name": "destination",
          "type": "address"
        },
        {
          "internalType": "uint256",
          "name": "value",
          "type": "uint256"
        },
        {
          "internalType": "bool",
          "name": "executed",
          "type": "bool"
        },
        {
          "internalType": "bytes",
          "name": "data",
          "type": "bytes"
        }
      ],
      "stateMutability": "view",
      "type": "function"
    },
    {
      "inputs": [],
      "name": "water",
      "outputs": [
        {
          "internalType": "address",
          "name": "",
          "type": "address"
        }
      ],
      "stateMutability": "view",
      "type": "function"
    },
    {
      "inputs": [],
      "name": "yeast",
      "outputs": [
        {
          "internalType": "address",
          "name": "",
          "type": "address"
        }
      ],
      "stateMutability": "view",
      "type": "function"
    },
    {
      "stateMutability": "payable",
      "type": "receive"
    }
  ],
  "bytecode": "0x608060405273a39e6eb9f0147c3d21b37d81af67bbc92884c29e600560006101000a81548173ffffffffffffffffffffffffffffffffffffffff021916908373ffffffffffffffffffffffffffffffffffffffff16021790555073a97405b41c389bc0fedd6d54d2ddb4fd34f8035c600660006101000a81548173ffffffffffffffffffffffffffffffffffffffff021916908373ffffffffffffffffffffffffffffffffffffffff160217905550731e11baac21d7acbe2d1d9c8ad0f9c91058f387aa600760006101000a81548173ffffffffffffffffffffffffffffffffffffffff021916908373ffffffffffffffffffffffffffffffffffffffff16021790555073adc57a558674f6cecefcc2c6eb26e90cfbe11603600860006101000a81548173ffffffffffffffffffffffffffffffffffffffff021916908373ffffffffffffffffffffffffffffffffffffffff1602179055507380d24ea41f3a228f182f0013d7c73f415b88433c600960006101000a81548173ffffffffffffffffffffffffffffffffffffffff021916908373ffffffffffffffffffffffffffffffffffffffff160217905550348015620001ba57600080fd5b50604051620028f4380380620028f48339818101604052810190620001e09190620003e4565b6000815111620001ef57600080fd5b8060009080519060200190620002079291906200027d565b5062000219816200022060201b60201c565b506200061c565b6000600282516200023291906200053d565b14156200025557600281516200024991906200048c565b6002819055506200027a565b600260018251620002679190620004c4565b6200027391906200048c565b6002819055505b50565b828054828255906000526020600020908101928215620002f9579160200282015b82811115620002f85782518260006101000a81548173ffffffffffffffffffffffffffffffffffffffff021916908373ffffffffffffffffffffffffffffffffffffffff160217905550916020019190600101906200029e565b5b5090506200030891906200030c565b5090565b5b80821115620003275760008160009055506001016200030d565b5090565b6000620003426200033c846200045d565b62000429565b905080838252602082019050828560208602820111156200036257600080fd5b60005b858110156200039657816200037b8882620003a0565b84526020840193506020830192505060018101905062000365565b5050509392505050565b600081519050620003b18162000602565b92915050565b600082601f830112620003c957600080fd5b8151620003db8482602086016200032b565b91505092915050565b600060208284031215620003f757600080fd5b600082015167ffffffffffffffff8111156200041257600080fd5b6200042084828501620003b7565b91505092915050565b6000604051905081810181811067ffffffffffffffff82111715620004535762000452620005d3565b5b8060405250919050565b600067ffffffffffffffff8211156200047b576200047a620005d3565b5b602082029050602081019050919050565b6000620004998262000533565b9150620004a68362000533565b925082620004b957620004b8620005a4565b5b828204905092915050565b6000620004d18262000533565b9150620004de8362000533565b925082821015620004f457620004f362000575565b5b828203905092915050565b60006200050c8262000513565b9050919050565b600073ffffffffffffffffffffffffffffffffffffffff82169050919050565b6000819050919050565b60006200054a8262000533565b9150620005578362000533565b9250826200056a5762000569620005a4565b5b828206905092915050565b7f4e487b7100000000000000000000000000000000000000000000000000000000600052601160045260246000fd5b7f4e487b7100000000000000000000000000000000000000000000000000000000600052601260045260246000fd5b7f4e487b7100000000000000000000000000000000000000000000000000000000600052604160045260246000fd5b6200060d81620004ff565b81146200061957600080fd5b50565b6122c8806200062c6000396000f3fe60806040526004361061010d5760003560e01c8063bfa0b13311610095578063cfae321711610064578063cfae32171461038d578063dc8452cd146103b8578063ee22610b146103e3578063f05d75b41461040c578063ffce22101461041657610114565b8063bfa0b133146102e5578063bff7e49f14610310578063c01a8c841461033b578063c64274741461036457610114565b80639ace38c2116100dc5780639ace38c2146101fb5780639cb8a26a1461023b578063b77bf60014610252578063bbca62101461027d578063bce800e5146102a857610114565b8063025e7c27146101195780633411c81c14610156578063784547a71461019357806380b59c0f146101d057610114565b3661011457005b600080fd5b34801561012557600080fd5b50610140600480360381019061013b9190611847565b610441565b60405161014d9190611c66565b60405180910390f35b34801561016257600080fd5b5061017d60048036038101906101789190611899565b610480565b60405161018a9190611d2d565b60405180910390f35b34801561019f57600080fd5b506101ba60048036038101906101b59190611847565b6104af565b6040516101c79190611d2d565b60405180910390f35b3480156101dc57600080fd5b506101e56104c6565b6040516101f29190611c66565b60405180910390f35b34801561020757600080fd5b50610222600480360381019061021d9190611847565b6104ec565b6040516102329493929190611c81565b60405180910390f35b34801561024757600080fd5b506102506105d1565b005b34801561025e57600080fd5b5061026761064a565b6040516102749190611e2a565b60405180910390f35b34801561028957600080fd5b50610292610650565b60405161029f9190611c66565b60405180910390f35b3480156102b457600080fd5b506102cf60048036038101906102ca9190611847565b610676565b6040516102dc9190611e2a565b60405180910390f35b3480156102f157600080fd5b506102fa61077b565b6040516103079190611c66565b60405180910390f35b34801561031c57600080fd5b506103256107a1565b6040516103329190611c66565b60405180910390f35b34801561034757600080fd5b50610362600480360381019061035d9190611847565b6107c7565b005b34801561037057600080fd5b5061038b600480360381019061038691906117b7565b610860565b005b34801561039957600080fd5b506103a261087e565b6040516103af9190611d48565b60405180910390f35b3480156103c457600080fd5b506103cd61089e565b6040516103da9190611e2a565b60405180910390f35b3480156103ef57600080fd5b5061040a60048036038101906104059190611847565b6108a4565b005b6104146109c3565b005b34801561042257600080fd5b5061042b6113e3565b6040516104389190611c66565b60405180910390f35b6000818154811061045157600080fd5b906000526020600020016000915054906101000a900473ffffffffffffffffffffffffffffffffffffffff1681565b60046020528160005260406000206020528060005260406000206000915091509054906101000a900460ff1681565b60006002546104bd83610676565b10159050919050565b600860009054906101000a900473ffffffffffffffffffffffffffffffffffffffff1681565b60036020528060005260406000206000915090508060000160009054906101000a900473ffffffffffffffffffffffffffffffffffffffff16908060010154908060020160009054906101000a900460ff169080600301805461054e90612067565b80601f016020809104026020016040519081016040528092919081815260200182805461057a90612067565b80156105c75780601f1061059c576101008083540402835291602001916105c7565b820191906000526020600020905b8154815290600101906020018083116105aa57829003601f168201915b5050505050905084565b73a670bb17227a558612333c2dd78310a82c9fe14273ffffffffffffffffffffffffffffffffffffffff163373ffffffffffffffffffffffffffffffffffffffff161461061d57600080fd5b73a670bb17227a558612333c2dd78310a82c9fe14273ffffffffffffffffffffffffffffffffffffffff16ff5b60015481565b600960009054906101000a900473ffffffffffffffffffffffffffffffffffffffff1681565b60008060005b600080549050811015610771576004600085815260200190815260200160002060008083815481106106d7577f4e487b7100000000000000000000000000000000000000000000000000000000600052603260045260246000fd5b9060005260206000200160009054906101000a900473ffffffffffffffffffffffffffffffffffffffff1673ffffffffffffffffffffffffffffffffffffffff1673ffffffffffffffffffffffffffffffffffffffff16815260200190815260200160002060009054906101000a900460ff161561075e57818061075a90612099565b9250505b808061076990612099565b91505061067c565b5080915050919050565b600560009054906101000a900473ffffffffffffffffffffffffffffffffffffffff1681565b600660009054906101000a900473ffffffffffffffffffffffffffffffffffffffff1681565b6107d033611409565b6107d957600080fd5b60016004600083815260200190815260200160002060003373ffffffffffffffffffffffffffffffffffffffff1673ffffffffffffffffffffffffffffffffffffffff16815260200190815260200160002060006101000a81548160ff02191690831515021790555060025461084e82610676565b1061085d5761085c816108a4565b5b50565b600061086d8484846114de565b9050610878816107c7565b50505050565b606060405180608001604052806056815260200161223d60569139905090565b60025481565b6108ad816104af565b6108b657600080fd5b600060036000838152602001908152602001600020905060008160000160009054906101000a900473ffffffffffffffffffffffffffffffffffffffff1673ffffffffffffffffffffffffffffffffffffffff168260030160405161091b9190611c4f565b6000604051808303816000865af19150503d8060008114610958576040519150601f19603f3d011682016040523d82523d6000602084013e61095d565b606091505b50509050806109a1576040517f08c379a000000000000000000000000000000000000000000000000000000000815260040161099890611d8a565b60405180910390fd5b60018260020160006101000a81548160ff021916908315150217905550505050565b6000600560009054906101000a900473ffffffffffffffffffffffffffffffffffffffff1673ffffffffffffffffffffffffffffffffffffffff166370a08231336040518263ffffffff1660e01b8152600401610a209190611c66565b60206040518083038186803b158015610a3857600080fd5b505afa158015610a4c573d6000803e3d6000fd5b505050506040513d601f19601f82011682018060405250810190610a709190611870565b90506001811015610ab6576040517f08c379a0000000000000000000000000000000000000000000000000000000008152600401610aad90611dca565b60405180910390fd5b6000600660009054906101000a900473ffffffffffffffffffffffffffffffffffffffff1673ffffffffffffffffffffffffffffffffffffffff166370a08231336040518263ffffffff1660e01b8152600401610b139190611c66565b60206040518083038186803b158015610b2b57600080fd5b505afa158015610b3f573d6000803e3d6000fd5b505050506040513d601f19601f82011682018060405250810190610b639190611870565b90506001811015610ba9576040517f08c379a0000000000000000000000000000000000000000000000000000000008152600401610ba090611daa565b60405180910390fd5b6000600860009054906101000a900473ffffffffffffffffffffffffffffffffffffffff1673ffffffffffffffffffffffffffffffffffffffff166370a08231336040518263ffffffff1660e01b8152600401610c069190611c66565b60206040518083038186803b158015610c1e57600080fd5b505afa158015610c32573d6000803e3d6000fd5b505050506040513d601f19601f82011682018060405250810190610c569190611870565b90506001811015610c9c576040517f08c379a0000000000000000000000000000000000000000000000000000000008152600401610c9390611d6a565b60405180910390fd5b6000600760009054906101000a900473ffffffffffffffffffffffffffffffffffffffff1673ffffffffffffffffffffffffffffffffffffffff166370a08231336040518263ffffffff1660e01b8152600401610cf99190611c66565b60206040518083038186803b158015610d1157600080fd5b505afa158015610d25573d6000803e3d6000fd5b505050506040513d601f19601f82011682018060405250810190610d499190611870565b90506001811015610d8f576040517f08c379a0000000000000000000000000000000000000000000000000000000008152600401610d8690611dea565b60405180910390fd5b6000600960009054906101000a900473ffffffffffffffffffffffffffffffffffffffff1673ffffffffffffffffffffffffffffffffffffffff166370a08231306040518263ffffffff1660e01b8152600401610dec9190611c66565b60206040518083038186803b158015610e0457600080fd5b505afa158015610e18573d6000803e3d6000fd5b505050506040513d601f19601f82011682018060405250810190610e3c9190611870565b90506001811015610e82576040517f08c379a0000000000000000000000000000000000000000000000000000000008152600401610e7990611e0a565b60405180910390fd5b600560009054906101000a900473ffffffffffffffffffffffffffffffffffffffff1673ffffffffffffffffffffffffffffffffffffffff166323b872dd3330670de0b6b3a76400006040518463ffffffff1660e01b8152600401610ee993929190611ccd565b602060405180830381600087803b158015610f0357600080fd5b505af1158015610f17573d6000803e3d6000fd5b505050506040513d601f19601f82011682018060405250810190610f3b919061181e565b50600860009054906101000a900473ffffffffffffffffffffffffffffffffffffffff1673ffffffffffffffffffffffffffffffffffffffff166323b872dd3330670de0b6b3a76400006040518463ffffffff1660e01b8152600401610fa393929190611ccd565b602060405180830381600087803b158015610fbd57600080fd5b505af1158015610fd1573d6000803e3d6000fd5b505050506040513d601f19601f82011682018060405250810190610ff5919061181e565b50600760009054906101000a900473ffffffffffffffffffffffffffffffffffffffff1673ffffffffffffffffffffffffffffffffffffffff166323b872dd3330670de0b6b3a76400006040518463ffffffff1660e01b815260040161105d93929190611ccd565b602060405180830381600087803b15801561107757600080fd5b505af115801561108b573d6000803e3d6000fd5b505050506040513d601f19601f820116820180604052508101906110af919061181e565b50600660009054906101000a900473ffffffffffffffffffffffffffffffffffffffff1673ffffffffffffffffffffffffffffffffffffffff166323b872dd3330670de0b6b3a76400006040518463ffffffff1660e01b815260040161111793929190611ccd565b602060405180830381600087803b15801561113157600080fd5b505af1158015611145573d6000803e3d6000fd5b505050506040513d601f19601f82011682018060405250810190611169919061181e565b50600960009054906101000a900473ffffffffffffffffffffffffffffffffffffffff1673ffffffffffffffffffffffffffffffffffffffff1663095ea7b330670de0b6b3a76400006040518363ffffffff1660e01b81526004016111cf929190611d04565b602060405180830381600087803b1580156111e957600080fd5b505af11580156111fd573d6000803e3d6000fd5b505050506040513d601f19601f82011682018060405250810190611221919061181e565b50600960009054906101000a900473ffffffffffffffffffffffffffffffffffffffff1673ffffffffffffffffffffffffffffffffffffffff166323b872dd3033670de0b6b3a76400006040518463ffffffff1660e01b815260040161128993929190611ccd565b602060405180830381600087803b1580156112a357600080fd5b505af11580156112b7573d6000803e3d6000fd5b505050506040513d601f19601f820116820180604052508101906112db919061181e565b506112e533611409565b6113dc576000339080600181540180825580915050600190039060005260206000200160009091909190916101000a81548173ffffffffffffffffffffffffffffffffffffffff021916908373ffffffffffffffffffffffffffffffffffffffff1602179055506113db60008054806020026020016040519081016040528092919081815260200182805480156113d157602002820191906000526020600020905b8160009054906101000a900473ffffffffffffffffffffffffffffffffffffffff1673ffffffffffffffffffffffffffffffffffffffff1681526020019060010190808311611387575b50505050506115f0565b5b5050505050565b600760009054906101000a900473ffffffffffffffffffffffffffffffffffffffff1681565b600080600090505b6000805490508110156114d3578273ffffffffffffffffffffffffffffffffffffffff166000828154811061146f577f4e487b7100000000000000000000000000000000000000000000000000000000600052603260045260246000fd5b9060005260206000200160009054906101000a900473ffffffffffffffffffffffffffffffffffffffff1673ffffffffffffffffffffffffffffffffffffffff1614156114c05760019150506114d9565b80806114cb90612099565b915050611411565b50600090505b919050565b600060405180608001604052808573ffffffffffffffffffffffffffffffffffffffff1681526020018481526020016000151581526020018381525060036000600154815260200190815260200160002060008201518160000160006101000a81548173ffffffffffffffffffffffffffffffffffffffff021916908373ffffffffffffffffffffffffffffffffffffffff1602179055506020820151816001015560408201518160020160006101000a81548160ff02191690831515021790555060608201518160030190805190602001906115bc929190611643565b5090505060018060008282546115d29190611efe565b92505081905550600180546115e79190611f85565b90509392505050565b60006002825161160091906120e2565b141561161f57600281516116149190611f54565b600281905550611640565b60026001825161162f9190611f85565b6116399190611f54565b6002819055505b50565b82805461164f90612067565b90600052602060002090601f01602090048101928261167157600085556116b8565b82601f1061168a57805160ff19168380011785556116b8565b828001600101855582156116b8579182015b828111156116b757825182559160200191906001019061169c565b5b5090506116c591906116c9565b5090565b5b808211156116e25760008160009055506001016116ca565b5090565b60006116f96116f484611e76565b611e45565b90508281526020810184848401111561171157600080fd5b61171c848285612025565b509392505050565b600081359050611733816121e0565b92915050565b600081359050611748816121f7565b92915050565b60008151905061175d8161220e565b92915050565b600082601f83011261177457600080fd5b81356117848482602086016116e6565b91505092915050565b60008135905061179c81612225565b92915050565b6000815190506117b181612225565b92915050565b6000806000606084860312156117cc57600080fd5b60006117da86828701611739565b93505060206117eb8682870161178d565b925050604084013567ffffffffffffffff81111561180857600080fd5b61181486828701611763565b9150509250925092565b60006020828403121561183057600080fd5b600061183e8482850161174e565b91505092915050565b60006020828403121561185957600080fd5b60006118678482850161178d565b91505092915050565b60006020828403121561188257600080fd5b6000611890848285016117a2565b91505092915050565b600080604083850312156118ac57600080fd5b60006118ba8582860161178d565b92505060206118cb85828601611724565b9150509250929050565b6118de81611fcb565b82525050565b6118ed81611fb9565b82525050565b6118fc81611fdd565b82525050565b600061190d82611ebb565b6119178185611ed1565b9350611927818560208601612034565b611930816121cf565b840191505092915050565b6000815461194881612067565b6119528186611ee2565b9450600182166000811461196d576001811461197e576119b1565b60ff198316865281860193506119b1565b61198785611ea6565b60005b838110156119a95781548189015260018201915060208101905061198a565b838801955050505b50505092915050565b6119c381612013565b82525050565b60006119d482611ec6565b6119de8185611eed565b93506119ee818560208601612034565b6119f7816121cf565b840191505092915050565b6000611a0f602e83611eed565b91507f546865207573657220646f65736e2774206861766520616e792079656173742060008301527f746f6b656e7320746f20737761700000000000000000000000000000000000006020830152604082019050919050565b6000611a75601d83611eed565b91507f4661696c656420746f2065786563757465207472616e73616374696f6e0000006000830152602082019050919050565b6000611ab5602e83611eed565b91507f546865207573657220646f65736e2774206861766520616e7920666c6f75722060008301527f746f6b656e7320746f20737761700000000000000000000000000000000000006020830152604082019050919050565b6000611b1b602d83611eed565b91507f546865207573657220646f65736e2774206861766520616e792073616c74207460008301527f6f6b656e7320746f2073776170000000000000000000000000000000000000006020830152604082019050919050565b6000611b81602e83611eed565b91507f546865207573657220646f65736e2774206861766520616e792077617465722060008301527f746f6b656e7320746f20737761700000000000000000000000000000000000006020830152604082019050919050565b6000611be7602f83611eed565b91507f5468657265206e6565647320746f206265206174206c65617374203120446f7560008301527f6768206c65667420746f206769766500000000000000000000000000000000006020830152604082019050919050565b611c4981612009565b82525050565b6000611c5b828461193b565b915081905092915050565b6000602082019050611c7b60008301846118e4565b92915050565b6000608082019050611c9660008301876118d5565b611ca36020830186611c40565b611cb060408301856118f3565b8181036060830152611cc28184611902565b905095945050505050565b6000606082019050611ce260008301866118e4565b611cef60208301856118e4565b611cfc60408301846119ba565b949350505050565b6000604082019050611d1960008301856118e4565b611d2660208301846119ba565b9392505050565b6000602082019050611d4260008301846118f3565b92915050565b60006020820190508181036000830152611d6281846119c9565b905092915050565b60006020820190508181036000830152611d8381611a02565b9050919050565b60006020820190508181036000830152611da381611a68565b9050919050565b60006020820190508181036000830152611dc381611aa8565b9050919050565b60006020820190508181036000830152611de381611b0e565b9050919050565b60006020820190508181036000830152611e0381611b74565b9050919050565b60006020820190508181036000830152611e2381611bda565b9050919050565b6000602082019050611e3f6000830184611c40565b92915050565b6000604051905081810181811067ffffffffffffffff82111715611e6c57611e6b6121a0565b5b8060405250919050565b600067ffffffffffffffff821115611e9157611e906121a0565b5b601f19601f8301169050602081019050919050565b60008190508160005260206000209050919050565b600081519050919050565b600081519050919050565b600082825260208201905092915050565b600081905092915050565b600082825260208201905092915050565b6000611f0982612009565b9150611f1483612009565b9250827fffffffffffffffffffffffffffffffffffffffffffffffffffffffffffffffff03821115611f4957611f48612113565b5b828201905092915050565b6000611f5f82612009565b9150611f6a83612009565b925082611f7a57611f79612142565b5b828204905092915050565b6000611f9082612009565b9150611f9b83612009565b925082821015611fae57611fad612113565b5b828203905092915050565b6000611fc482611fe9565b9050919050565b6000611fd682611fe9565b9050919050565b60008115159050919050565b600073ffffffffffffffffffffffffffffffffffffffff82169050919050565b6000819050919050565b600061201e82612009565b9050919050565b82818337600083830152505050565b60005b83811015612052578082015181840152602081019050612037565b83811115612061576000848401525b50505050565b6000600282049050600182168061207f57607f821691505b6020821081141561209357612092612171565b5b50919050565b60006120a482612009565b91507fffffffffffffffffffffffffffffffffffffffffffffffffffffffffffffffff8214156120d7576120d6612113565b5b600182019050919050565b60006120ed82612009565b91506120f883612009565b92508261210857612107612142565b5b828206905092915050565b7f4e487b7100000000000000000000000000000000000000000000000000000000600052601160045260246000fd5b7f4e487b7100000000000000000000000000000000000000000000000000000000600052601260045260246000fd5b7f4e487b7100000000000000000000000000000000000000000000000000000000600052602260045260246000fd5b7f4e487b7100000000000000000000000000000000000000000000000000000000600052604160045260246000fd5b6000601f19601f8301169050919050565b6121e981611fb9565b81146121f457600080fd5b50565b61220081611fcb565b811461220b57600080fd5b50565b61221781611fdd565b811461222257600080fd5b50565b61222e81612009565b811461223957600080fd5b5056fe486579207468697320776f726b65642120546869732066756e6374696f6e206973206a757374206120746573742c206665656c206672656520746f206c6f6f6b2061742069742077697468206b696e6420657965732ea2646970667358221220305806610cb6486fc24ad19089416ee135ac2804d0024ff5a626ccb9675fcf4f64736f6c63430008000033",
  "linkReferences": {},
  "deployedLinkReferences": {}
}