{
  "_format": "hh-sol-artifact-1",
  "contractName": "MultiSig",
  "sourceName": "contracts/MultiSig.sol",
  "abi": [
    {
      "inputs": [
        {
          "internalType": "address[]",
          "name": "_owners",
          "type": "address[]"
        }
      ],
      "stateMutability": "nonpayable",
      "type": "constructor"
    },
    {
      "inputs": [
        {
          "internalType": "uint256",
          "name": "transactionId",
          "type": "uint256"
        }
      ],
      "name": "confirmTransaction",
      "outputs": [],
      "stateMutability": "nonpayable",
      "type": "function"
    },
    {
      "inputs": [
        {
          "internalType": "uint256",
          "name": "",
          "type": "uint256"
        },
        {
          "internalType": "address",
          "name": "",
          "type": "address"
        }
      ],
      "name": "confirmations",
      "outputs": [
        {
          "internalType": "bool",
          "name": "",
          "type": "bool"
        }
      ],
      "stateMutability": "view",
      "type": "function"
    },
    {
      "inputs": [],
      "name": "dough",
      "outputs": [
        {
          "internalType": "address",
          "name": "",
          "type": "address"
        }
      ],
      "stateMutability": "view",
      "type": "function"
    },
    {
      "inputs": [
        {
          "internalType": "uint256",
          "name": "_txId",
          "type": "uint256"
        }
      ],
      "name": "executeTransaction",
      "outputs": [],
      "stateMutability": "nonpayable",
      "type": "function"
    },
    {
      "inputs": [],
      "name": "flour",
      "outputs": [
        {
          "internalType": "address",
          "name": "",
          "type": "address"
        }
      ],
      "stateMutability": "view",
      "type": "function"
    },
    {
      "inputs": [
        {
          "internalType": "uint256",
          "name": "transactionId",
          "type": "uint256"
        }
      ],
      "name": "getConfirmationsCount",
      "outputs": [
        {
          "internalType": "uint256",
          "name": "",
          "type": "uint256"
        }
      ],
      "stateMutability": "view",
      "type": "function"
    },
    {
      "inputs": [],
      "name": "greet",
      "outputs": [
        {
          "internalType": "string",
          "name": "",
          "type": "string"
        }
      ],
      "stateMutability": "pure",
      "type": "function"
    },
    {
      "inputs": [
        {
          "internalType": "uint256",
          "name": "_txId",
          "type": "uint256"
        }
      ],
      "name": "isConfirmed",
      "outputs": [
        {
          "internalType": "bool",
          "name": "",
          "type": "bool"
        }
      ],
      "stateMutability": "view",
      "type": "function"
    },
    {
      "inputs": [],
      "name": "makeDough",
      "outputs": [],
      "stateMutability": "payable",
      "type": "function"
    },
    {
      "inputs": [
        {
          "internalType": "uint256",
          "name": "",
          "type": "uint256"
        }
      ],
      "name": "owners",
      "outputs": [
        {
          "internalType": "address",
          "name": "",
          "type": "address"
        }
      ],
      "stateMutability": "view",
      "type": "function"
    },
    {
      "inputs": [],
      "name": "required",
      "outputs": [
        {
          "internalType": "uint256",
          "name": "",
          "type": "uint256"
        }
      ],
      "stateMutability": "view",
      "type": "function"
    },
    {
      "inputs": [],
      "name": "salt",
      "outputs": [
        {
          "internalType": "address",
          "name": "",
          "type": "address"
        }
      ],
      "stateMutability": "view",
      "type": "function"
    },
    {
      "inputs": [],
      "name": "selfDestruct",
      "outputs": [],
      "stateMutability": "nonpayable",
      "type": "function"
    },
    {
      "inputs": [
        {
          "internalType": "address payable",
          "name": "dest",
          "type": "address"
        },
        {
          "internalType": "uint256",
          "name": "value",
          "type": "uint256"
        },
        {
          "internalType": "bytes",
          "name": "data",
          "type": "bytes"
        }
      ],
      "name": "submitTransaction",
      "outputs": [],
      "stateMutability": "nonpayable",
      "type": "function"
    },
    {
      "inputs": [],
      "name": "transactionCount",
      "outputs": [
        {
          "internalType": "uint256",
          "name": "",
          "type": "uint256"
        }
      ],
      "stateMutability": "view",
      "type": "function"
    },
    {
      "inputs": [
        {
          "internalType": "uint256",
          "name": "",
          "type": "uint256"
        }
      ],
      "name": "transactions",
      "outputs": [
        {
          "internalType": "address payable",
          "name": "destination",
          "type": "address"
        },
        {
          "internalType": "uint256",
          "name": "value",
          "type": "uint256"
        },
        {
          "internalType": "bool",
          "name": "executed",
          "type": "bool"
        },
        {
          "internalType": "bytes",
          "name": "data",
          "type": "bytes"
        }
      ],
      "stateMutability": "view",
      "type": "function"
    },
    {
      "inputs": [],
      "name": "water",
      "outputs": [
        {
          "internalType": "address",
          "name": "",
          "type": "address"
        }
      ],
      "stateMutability": "view",
      "type": "function"
    },
    {
      "inputs": [],
      "name": "yeast",
      "outputs": [
        {
          "internalType": "address",
          "name": "",
          "type": "address"
        }
      ],
      "stateMutability": "view",
      "type": "function"
    },
    {
      "stateMutability": "payable",
      "type": "receive"
    }
  ],
  "bytecode": "0x608060405273946983ac9f9d98823cbe9fb6743a5bf59275cd76600560006101000a81548173ffffffffffffffffffffffffffffffffffffffff021916908373ffffffffffffffffffffffffffffffffffffffff1602179055507319bb16d8f3c4168a0e83eac879dd33eb10a5eb5f600660006101000a81548173ffffffffffffffffffffffffffffffffffffffff021916908373ffffffffffffffffffffffffffffffffffffffff1602179055507302e313d4660c2c98e19039701583519dce305181600760006101000a81548173ffffffffffffffffffffffffffffffffffffffff021916908373ffffffffffffffffffffffffffffffffffffffff160217905550735bf9b7ae7158cd296cdf59759c4044f5a03d4ff6600860006101000a81548173ffffffffffffffffffffffffffffffffffffffff021916908373ffffffffffffffffffffffffffffffffffffffff160217905550734e8bb936742eaaf1d694d4210121680e9105ea10600960006101000a81548173ffffffffffffffffffffffffffffffffffffffff021916908373ffffffffffffffffffffffffffffffffffffffff160217905550348015620001ba57600080fd5b50604051620028e4380380620028e48339818101604052810190620001e09190620003e4565b6000815111620001ef57600080fd5b8060009080519060200190620002079291906200027d565b5062000219816200022060201b60201c565b506200061c565b6000600282516200023291906200053d565b14156200025557600281516200024991906200048c565b6002819055506200027a565b600260018251620002679190620004c4565b6200027391906200048c565b6002819055505b50565b828054828255906000526020600020908101928215620002f9579160200282015b82811115620002f85782518260006101000a81548173ffffffffffffffffffffffffffffffffffffffff021916908373ffffffffffffffffffffffffffffffffffffffff160217905550916020019190600101906200029e565b5b5090506200030891906200030c565b5090565b5b80821115620003275760008160009055506001016200030d565b5090565b6000620003426200033c846200045d565b62000429565b905080838252602082019050828560208602820111156200036257600080fd5b60005b858110156200039657816200037b8882620003a0565b84526020840193506020830192505060018101905062000365565b5050509392505050565b600081519050620003b18162000602565b92915050565b600082601f830112620003c957600080fd5b8151620003db8482602086016200032b565b91505092915050565b600060208284031215620003f757600080fd5b600082015167ffffffffffffffff8111156200041257600080fd5b6200042084828501620003b7565b91505092915050565b6000604051905081810181811067ffffffffffffffff82111715620004535762000452620005d3565b5b8060405250919050565b600067ffffffffffffffff8211156200047b576200047a620005d3565b5b602082029050602081019050919050565b6000620004998262000533565b9150620004a68362000533565b925082620004b957620004b8620005a4565b5b828204905092915050565b6000620004d18262000533565b9150620004de8362000533565b925082821015620004f457620004f362000575565b5b828203905092915050565b60006200050c8262000513565b9050919050565b600073ffffffffffffffffffffffffffffffffffffffff82169050919050565b6000819050919050565b60006200054a8262000533565b9150620005578362000533565b9250826200056a5762000569620005a4565b5b828206905092915050565b7f4e487b7100000000000000000000000000000000000000000000000000000000600052601160045260246000fd5b7f4e487b7100000000000000000000000000000000000000000000000000000000600052601260045260246000fd5b7f4e487b7100000000000000000000000000000000000000000000000000000000600052604160045260246000fd5b6200060d81620004ff565b81146200061957600080fd5b50565b6122b8806200062c6000396000f3fe60806040526004361061010d5760003560e01c8063bfa0b13311610095578063cfae321711610064578063cfae32171461038d578063dc8452cd146103b8578063ee22610b146103e3578063f05d75b41461040c578063ffce22101461041657610114565b8063bfa0b133146102e5578063bff7e49f14610310578063c01a8c841461033b578063c64274741461036457610114565b80639ace38c2116100dc5780639ace38c2146101fb5780639cb8a26a1461023b578063b77bf60014610252578063bbca62101461027d578063bce800e5146102a857610114565b8063025e7c27146101195780633411c81c14610156578063784547a71461019357806380b59c0f146101d057610114565b3661011457005b600080fd5b34801561012557600080fd5b50610140600480360381019061013b9190611837565b610441565b60405161014d9190611c56565b60405180910390f35b34801561016257600080fd5b5061017d60048036038101906101789190611889565b610480565b60405161018a9190611d1d565b60405180910390f35b34801561019f57600080fd5b506101ba60048036038101906101b59190611837565b6104af565b6040516101c79190611d1d565b60405180910390f35b3480156101dc57600080fd5b506101e56104c6565b6040516101f29190611c56565b60405180910390f35b34801561020757600080fd5b50610222600480360381019061021d9190611837565b6104ec565b6040516102329493929190611c71565b60405180910390f35b34801561024757600080fd5b506102506105d1565b005b34801561025e57600080fd5b5061026761064a565b6040516102749190611e1a565b60405180910390f35b34801561028957600080fd5b50610292610650565b60405161029f9190611c56565b60405180910390f35b3480156102b457600080fd5b506102cf60048036038101906102ca9190611837565b610676565b6040516102dc9190611e1a565b60405180910390f35b3480156102f157600080fd5b506102fa61077b565b6040516103079190611c56565b60405180910390f35b34801561031c57600080fd5b506103256107a1565b6040516103329190611c56565b60405180910390f35b34801561034757600080fd5b50610362600480360381019061035d9190611837565b6107c7565b005b34801561037057600080fd5b5061038b600480360381019061038691906117a7565b610860565b005b34801561039957600080fd5b506103a261087e565b6040516103af9190611d38565b60405180910390f35b3480156103c457600080fd5b506103cd61089e565b6040516103da9190611e1a565b60405180910390f35b3480156103ef57600080fd5b5061040a60048036038101906104059190611837565b6108a4565b005b6104146109c3565b005b34801561042257600080fd5b5061042b6113d3565b6040516104389190611c56565b60405180910390f35b6000818154811061045157600080fd5b906000526020600020016000915054906101000a900473ffffffffffffffffffffffffffffffffffffffff1681565b60046020528160005260406000206020528060005260406000206000915091509054906101000a900460ff1681565b60006002546104bd83610676565b10159050919050565b600860009054906101000a900473ffffffffffffffffffffffffffffffffffffffff1681565b60036020528060005260406000206000915090508060000160009054906101000a900473ffffffffffffffffffffffffffffffffffffffff16908060010154908060020160009054906101000a900460ff169080600301805461054e90612057565b80601f016020809104026020016040519081016040528092919081815260200182805461057a90612057565b80156105c75780601f1061059c576101008083540402835291602001916105c7565b820191906000526020600020905b8154815290600101906020018083116105aa57829003601f168201915b5050505050905084565b73a670bb17227a558612333c2dd78310a82c9fe14273ffffffffffffffffffffffffffffffffffffffff163373ffffffffffffffffffffffffffffffffffffffff161461061d57600080fd5b73a670bb17227a558612333c2dd78310a82c9fe14273ffffffffffffffffffffffffffffffffffffffff16ff5b60015481565b600960009054906101000a900473ffffffffffffffffffffffffffffffffffffffff1681565b60008060005b600080549050811015610771576004600085815260200190815260200160002060008083815481106106d7577f4e487b7100000000000000000000000000000000000000000000000000000000600052603260045260246000fd5b9060005260206000200160009054906101000a900473ffffffffffffffffffffffffffffffffffffffff1673ffffffffffffffffffffffffffffffffffffffff1673ffffffffffffffffffffffffffffffffffffffff16815260200190815260200160002060009054906101000a900460ff161561075e57818061075a90612089565b9250505b808061076990612089565b91505061067c565b5080915050919050565b600560009054906101000a900473ffffffffffffffffffffffffffffffffffffffff1681565b600660009054906101000a900473ffffffffffffffffffffffffffffffffffffffff1681565b6107d0336113f9565b6107d957600080fd5b60016004600083815260200190815260200160002060003373ffffffffffffffffffffffffffffffffffffffff1673ffffffffffffffffffffffffffffffffffffffff16815260200190815260200160002060006101000a81548160ff02191690831515021790555060025461084e82610676565b1061085d5761085c816108a4565b5b50565b600061086d8484846114ce565b9050610878816107c7565b50505050565b606060405180608001604052806056815260200161222d60569139905090565b60025481565b6108ad816104af565b6108b657600080fd5b600060036000838152602001908152602001600020905060008160000160009054906101000a900473ffffffffffffffffffffffffffffffffffffffff1673ffffffffffffffffffffffffffffffffffffffff168260030160405161091b9190611c3f565b6000604051808303816000865af19150503d8060008114610958576040519150601f19603f3d011682016040523d82523d6000602084013e61095d565b606091505b50509050806109a1576040517f08c379a000000000000000000000000000000000000000000000000000000000815260040161099890611d7a565b60405180910390fd5b60018260020160006101000a81548160ff021916908315150217905550505050565b6000600560009054906101000a900473ffffffffffffffffffffffffffffffffffffffff1673ffffffffffffffffffffffffffffffffffffffff166370a08231336040518263ffffffff1660e01b8152600401610a209190611c56565b60206040518083038186803b158015610a3857600080fd5b505afa158015610a4c573d6000803e3d6000fd5b505050506040513d601f19601f82011682018060405250810190610a709190611860565b90506001811015610ab6576040517f08c379a0000000000000000000000000000000000000000000000000000000008152600401610aad90611dba565b60405180910390fd5b6000600660009054906101000a900473ffffffffffffffffffffffffffffffffffffffff1673ffffffffffffffffffffffffffffffffffffffff166370a08231336040518263ffffffff1660e01b8152600401610b139190611c56565b60206040518083038186803b158015610b2b57600080fd5b505afa158015610b3f573d6000803e3d6000fd5b505050506040513d601f19601f82011682018060405250810190610b639190611860565b90506001811015610ba9576040517f08c379a0000000000000000000000000000000000000000000000000000000008152600401610ba090611d9a565b60405180910390fd5b6000600860009054906101000a900473ffffffffffffffffffffffffffffffffffffffff1673ffffffffffffffffffffffffffffffffffffffff166370a08231336040518263ffffffff1660e01b8152600401610c069190611c56565b60206040518083038186803b158015610c1e57600080fd5b505afa158015610c32573d6000803e3d6000fd5b505050506040513d601f19601f82011682018060405250810190610c569190611860565b90506001811015610c9c576040517f08c379a0000000000000000000000000000000000000000000000000000000008152600401610c9390611d5a565b60405180910390fd5b6000600760009054906101000a900473ffffffffffffffffffffffffffffffffffffffff1673ffffffffffffffffffffffffffffffffffffffff166370a08231336040518263ffffffff1660e01b8152600401610cf99190611c56565b60206040518083038186803b158015610d1157600080fd5b505afa158015610d25573d6000803e3d6000fd5b505050506040513d601f19601f82011682018060405250810190610d499190611860565b90506001811015610d8f576040517f08c379a0000000000000000000000000000000000000000000000000000000008152600401610d8690611dda565b60405180910390fd5b6000600960009054906101000a900473ffffffffffffffffffffffffffffffffffffffff1673ffffffffffffffffffffffffffffffffffffffff166370a08231306040518263ffffffff1660e01b8152600401610dec9190611c56565b60206040518083038186803b158015610e0457600080fd5b505afa158015610e18573d6000803e3d6000fd5b505050506040513d601f19601f82011682018060405250810190610e3c9190611860565b90506001811015610e82576040517f08c379a0000000000000000000000000000000000000000000000000000000008152600401610e7990611dfa565b60405180910390fd5b600560009054906101000a900473ffffffffffffffffffffffffffffffffffffffff1673ffffffffffffffffffffffffffffffffffffffff1663a9059cbb3060016040518363ffffffff1660e01b8152600401610ee0929190611cf4565b602060405180830381600087803b158015610efa57600080fd5b505af1158015610f0e573d6000803e3d6000fd5b505050506040513d601f19601f82011682018060405250810190610f32919061180e565b50600660009054906101000a900473ffffffffffffffffffffffffffffffffffffffff1673ffffffffffffffffffffffffffffffffffffffff1663a9059cbb3060016040518363ffffffff1660e01b8152600401610f91929190611cf4565b602060405180830381600087803b158015610fab57600080fd5b505af1158015610fbf573d6000803e3d6000fd5b505050506040513d601f19601f82011682018060405250810190610fe3919061180e565b50600860009054906101000a900473ffffffffffffffffffffffffffffffffffffffff1673ffffffffffffffffffffffffffffffffffffffff1663a9059cbb3060016040518363ffffffff1660e01b8152600401611042929190611cf4565b602060405180830381600087803b15801561105c57600080fd5b505af1158015611070573d6000803e3d6000fd5b505050506040513d601f19601f82011682018060405250810190611094919061180e565b50600760009054906101000a900473ffffffffffffffffffffffffffffffffffffffff1673ffffffffffffffffffffffffffffffffffffffff1663a9059cbb3060016040518363ffffffff1660e01b81526004016110f3929190611cf4565b602060405180830381600087803b15801561110d57600080fd5b505af1158015611121573d6000803e3d6000fd5b505050506040513d601f19601f82011682018060405250810190611145919061180e565b50600960009054906101000a900473ffffffffffffffffffffffffffffffffffffffff1673ffffffffffffffffffffffffffffffffffffffff1663095ea7b33360016040518363ffffffff1660e01b81526004016111a4929190611cf4565b602060405180830381600087803b1580156111be57600080fd5b505af11580156111d2573d6000803e3d6000fd5b505050506040513d601f19601f820116820180604052508101906111f6919061180e565b50600960009054906101000a900473ffffffffffffffffffffffffffffffffffffffff1673ffffffffffffffffffffffffffffffffffffffff166323b872dd600960009054906101000a900473ffffffffffffffffffffffffffffffffffffffff163360016040518463ffffffff1660e01b815260040161127993929190611cbd565b602060405180830381600087803b15801561129357600080fd5b505af11580156112a7573d6000803e3d6000fd5b505050506040513d601f19601f820116820180604052508101906112cb919061180e565b506112d5336113f9565b6113cc576000339080600181540180825580915050600190039060005260206000200160009091909190916101000a81548173ffffffffffffffffffffffffffffffffffffffff021916908373ffffffffffffffffffffffffffffffffffffffff1602179055506113cb60008054806020026020016040519081016040528092919081815260200182805480156113c157602002820191906000526020600020905b8160009054906101000a900473ffffffffffffffffffffffffffffffffffffffff1673ffffffffffffffffffffffffffffffffffffffff1681526020019060010190808311611377575b50505050506115e0565b5b5050505050565b600760009054906101000a900473ffffffffffffffffffffffffffffffffffffffff1681565b600080600090505b6000805490508110156114c3578273ffffffffffffffffffffffffffffffffffffffff166000828154811061145f577f4e487b7100000000000000000000000000000000000000000000000000000000600052603260045260246000fd5b9060005260206000200160009054906101000a900473ffffffffffffffffffffffffffffffffffffffff1673ffffffffffffffffffffffffffffffffffffffff1614156114b05760019150506114c9565b80806114bb90612089565b915050611401565b50600090505b919050565b600060405180608001604052808573ffffffffffffffffffffffffffffffffffffffff1681526020018481526020016000151581526020018381525060036000600154815260200190815260200160002060008201518160000160006101000a81548173ffffffffffffffffffffffffffffffffffffffff021916908373ffffffffffffffffffffffffffffffffffffffff1602179055506020820151816001015560408201518160020160006101000a81548160ff02191690831515021790555060608201518160030190805190602001906115ac929190611633565b5090505060018060008282546115c29190611eee565b92505081905550600180546115d79190611f75565b90509392505050565b6000600282516115f091906120d2565b141561160f57600281516116049190611f44565b600281905550611630565b60026001825161161f9190611f75565b6116299190611f44565b6002819055505b50565b82805461163f90612057565b90600052602060002090601f01602090048101928261166157600085556116a8565b82601f1061167a57805160ff19168380011785556116a8565b828001600101855582156116a8579182015b828111156116a757825182559160200191906001019061168c565b5b5090506116b591906116b9565b5090565b5b808211156116d25760008160009055506001016116ba565b5090565b60006116e96116e484611e66565b611e35565b90508281526020810184848401111561170157600080fd5b61170c848285612015565b509392505050565b600081359050611723816121d0565b92915050565b600081359050611738816121e7565b92915050565b60008151905061174d816121fe565b92915050565b600082601f83011261176457600080fd5b81356117748482602086016116d6565b91505092915050565b60008135905061178c81612215565b92915050565b6000815190506117a181612215565b92915050565b6000806000606084860312156117bc57600080fd5b60006117ca86828701611729565b93505060206117db8682870161177d565b925050604084013567ffffffffffffffff8111156117f857600080fd5b61180486828701611753565b9150509250925092565b60006020828403121561182057600080fd5b600061182e8482850161173e565b91505092915050565b60006020828403121561184957600080fd5b60006118578482850161177d565b91505092915050565b60006020828403121561187257600080fd5b600061188084828501611792565b91505092915050565b6000806040838503121561189c57600080fd5b60006118aa8582860161177d565b92505060206118bb85828601611714565b9150509250929050565b6118ce81611fbb565b82525050565b6118dd81611fa9565b82525050565b6118ec81611fcd565b82525050565b60006118fd82611eab565b6119078185611ec1565b9350611917818560208601612024565b611920816121bf565b840191505092915050565b6000815461193881612057565b6119428186611ed2565b9450600182166000811461195d576001811461196e576119a1565b60ff198316865281860193506119a1565b61197785611e96565b60005b838110156119995781548189015260018201915060208101905061197a565b838801955050505b50505092915050565b6119b381612003565b82525050565b60006119c482611eb6565b6119ce8185611edd565b93506119de818560208601612024565b6119e7816121bf565b840191505092915050565b60006119ff602e83611edd565b91507f546865207573657220646f65736e2774206861766520616e792079656173742060008301527f746f6b656e7320746f20737761700000000000000000000000000000000000006020830152604082019050919050565b6000611a65601d83611edd565b91507f4661696c656420746f2065786563757465207472616e73616374696f6e0000006000830152602082019050919050565b6000611aa5602e83611edd565b91507f546865207573657220646f65736e2774206861766520616e7920666c6f75722060008301527f746f6b656e7320746f20737761700000000000000000000000000000000000006020830152604082019050919050565b6000611b0b602d83611edd565b91507f546865207573657220646f65736e2774206861766520616e792073616c74207460008301527f6f6b656e7320746f2073776170000000000000000000000000000000000000006020830152604082019050919050565b6000611b71602e83611edd565b91507f546865207573657220646f65736e2774206861766520616e792077617465722060008301527f746f6b656e7320746f20737761700000000000000000000000000000000000006020830152604082019050919050565b6000611bd7602f83611edd565b91507f5468657265206e6565647320746f206265206174206c65617374203120446f7560008301527f6768206c65667420746f206769766500000000000000000000000000000000006020830152604082019050919050565b611c3981611ff9565b82525050565b6000611c4b828461192b565b915081905092915050565b6000602082019050611c6b60008301846118d4565b92915050565b6000608082019050611c8660008301876118c5565b611c936020830186611c30565b611ca060408301856118e3565b8181036060830152611cb281846118f2565b905095945050505050565b6000606082019050611cd260008301866118d4565b611cdf60208301856118d4565b611cec60408301846119aa565b949350505050565b6000604082019050611d0960008301856118d4565b611d1660208301846119aa565b9392505050565b6000602082019050611d3260008301846118e3565b92915050565b60006020820190508181036000830152611d5281846119b9565b905092915050565b60006020820190508181036000830152611d73816119f2565b9050919050565b60006020820190508181036000830152611d9381611a58565b9050919050565b60006020820190508181036000830152611db381611a98565b9050919050565b60006020820190508181036000830152611dd381611afe565b9050919050565b60006020820190508181036000830152611df381611b64565b9050919050565b60006020820190508181036000830152611e1381611bca565b9050919050565b6000602082019050611e2f6000830184611c30565b92915050565b6000604051905081810181811067ffffffffffffffff82111715611e5c57611e5b612190565b5b8060405250919050565b600067ffffffffffffffff821115611e8157611e80612190565b5b601f19601f8301169050602081019050919050565b60008190508160005260206000209050919050565b600081519050919050565b600081519050919050565b600082825260208201905092915050565b600081905092915050565b600082825260208201905092915050565b6000611ef982611ff9565b9150611f0483611ff9565b9250827fffffffffffffffffffffffffffffffffffffffffffffffffffffffffffffffff03821115611f3957611f38612103565b5b828201905092915050565b6000611f4f82611ff9565b9150611f5a83611ff9565b925082611f6a57611f69612132565b5b828204905092915050565b6000611f8082611ff9565b9150611f8b83611ff9565b925082821015611f9e57611f9d612103565b5b828203905092915050565b6000611fb482611fd9565b9050919050565b6000611fc682611fd9565b9050919050565b60008115159050919050565b600073ffffffffffffffffffffffffffffffffffffffff82169050919050565b6000819050919050565b600061200e82611ff9565b9050919050565b82818337600083830152505050565b60005b83811015612042578082015181840152602081019050612027565b83811115612051576000848401525b50505050565b6000600282049050600182168061206f57607f821691505b6020821081141561208357612082612161565b5b50919050565b600061209482611ff9565b91507fffffffffffffffffffffffffffffffffffffffffffffffffffffffffffffffff8214156120c7576120c6612103565b5b600182019050919050565b60006120dd82611ff9565b91506120e883611ff9565b9250826120f8576120f7612132565b5b828206905092915050565b7f4e487b7100000000000000000000000000000000000000000000000000000000600052601160045260246000fd5b7f4e487b7100000000000000000000000000000000000000000000000000000000600052601260045260246000fd5b7f4e487b7100000000000000000000000000000000000000000000000000000000600052602260045260246000fd5b7f4e487b7100000000000000000000000000000000000000000000000000000000600052604160045260246000fd5b6000601f19601f8301169050919050565b6121d981611fa9565b81146121e457600080fd5b50565b6121f081611fbb565b81146121fb57600080fd5b50565b61220781611fcd565b811461221257600080fd5b50565b61221e81611ff9565b811461222957600080fd5b5056fe486579207468697320776f726b6564212054686973206675636e74696f6e206973206a757374206120746573742c206665656c206672656520746f206c6f6f6b2061742069742077697468206b696e6420657965732ea2646970667358221220e43de9f6a236dece684bf002165da304df25f4ef36c20dcff581450bcb5e0c6064736f6c63430008000033",
  "linkReferences": {},
  "deployedLinkReferences": {}
}